{"abi":[{"type":"constructor","inputs":[{"name":"_owner","type":"address","internalType":"address"},{"name":"_name","type":"string","internalType":"string"},{"name":"_symbol","type":"string","internalType":"string"},{"name":"_decimals","type":"uint8","internalType":"uint8"}],"stateMutability":"nonpayable"},{"type":"receive","stateMutability":"payable"},{"type":"function","name":"DOMAIN_SEPARATOR","inputs":[],"outputs":[{"name":"","type":"bytes32","internalType":"bytes32"}],"stateMutability":"view"},{"type":"function","name":"allowance","inputs":[{"name":"","type":"address","internalType":"address"},{"name":"","type":"address","internalType":"address"}],"outputs":[{"name":"","type":"uint256","internalType":"uint256"}],"stateMutability":"view"},{"type":"function","name":"approve","inputs":[{"name":"spender","type":"address","internalType":"address"},{"name":"amount","type":"uint256","internalType":"uint256"}],"outputs":[{"name":"","type":"bool","internalType":"bool"}],"stateMutability":"nonpayable"},{"type":"function","name":"authority","inputs":[],"outputs":[{"name":"","type":"address","internalType":"contract Authority"}],"stateMutability":"view"},{"type":"function","name":"balanceOf","inputs":[{"name":"","type":"address","internalType":"address"}],"outputs":[{"name":"","type":"uint256","internalType":"uint256"}],"stateMutability":"view"},{"type":"function","name":"decimals","inputs":[],"outputs":[{"name":"","type":"uint8","internalType":"uint8"}],"stateMutability":"view"},{"type":"function","name":"enter","inputs":[{"name":"from","type":"address","internalType":"address"},{"name":"asset","type":"address","internalType":"contract ERC20"},{"name":"assetAmount","type":"uint256","internalType":"uint256"},{"name":"to","type":"address","internalType":"address"},{"name":"shareAmount","type":"uint256","internalType":"uint256"}],"outputs":[],"stateMutability":"nonpayable"},{"type":"function","name":"exit","inputs":[{"name":"to","type":"address","internalType":"address"},{"name":"asset","type":"address","internalType":"contract ERC20"},{"name":"assetAmount","type":"uint256","internalType":"uint256"},{"name":"from","type":"address","internalType":"address"},{"name":"shareAmount","type":"uint256","internalType":"uint256"}],"outputs":[],"stateMutability":"nonpayable"},{"type":"function","name":"hook","inputs":[],"outputs":[{"name":"","type":"address","internalType":"contract BeforeTransferHook"}],"stateMutability":"view"},{"type":"function","name":"manage","inputs":[{"name":"targets","type":"address[]","internalType":"address[]"},{"name":"data","type":"bytes[]","internalType":"bytes[]"},{"name":"values","type":"uint256[]","internalType":"uint256[]"}],"outputs":[{"name":"results","type":"bytes[]","internalType":"bytes[]"}],"stateMutability":"nonpayable"},{"type":"function","name":"manage","inputs":[{"name":"target","type":"address","internalType":"address"},{"name":"data","type":"bytes","internalType":"bytes"},{"name":"value","type":"uint256","internalType":"uint256"}],"outputs":[{"name":"result","type":"bytes","internalType":"bytes"}],"stateMutability":"nonpayable"},{"type":"function","name":"name","inputs":[],"outputs":[{"name":"","type":"string","internalType":"string"}],"stateMutability":"view"},{"type":"function","name":"nonces","inputs":[{"name":"","type":"address","internalType":"address"}],"outputs":[{"name":"","type":"uint256","internalType":"uint256"}],"stateMutability":"view"},{"type":"function","name":"onERC1155BatchReceived","inputs":[{"name":"","type":"address","internalType":"address"},{"name":"","type":"address","internalType":"address"},{"name":"","type":"uint256[]","internalType":"uint256[]"},{"name":"","type":"uint256[]","internalType":"uint256[]"},{"name":"","type":"bytes","internalType":"bytes"}],"outputs":[{"name":"","type":"bytes4","internalType":"bytes4"}],"stateMutability":"nonpayable"},{"type":"function","name":"onERC1155Received","inputs":[{"name":"","type":"address","internalType":"address"},{"name":"","type":"address","internalType":"address"},{"name":"","type":"uint256","internalType":"uint256"},{"name":"","type":"uint256","internalType":"uint256"},{"name":"","type":"bytes","internalType":"bytes"}],"outputs":[{"name":"","type":"bytes4","internalType":"bytes4"}],"stateMutability":"nonpayable"},{"type":"function","name":"onERC721Received","inputs":[{"name":"","type":"address","internalType":"address"},{"name":"","type":"address","internalType":"address"},{"name":"","type":"uint256","internalType":"uint256"},{"name":"","type":"bytes","internalType":"bytes"}],"outputs":[{"name":"","type":"bytes4","internalType":"bytes4"}],"stateMutability":"nonpayable"},{"type":"function","name":"owner","inputs":[],"outputs":[{"name":"","type":"address","internalType":"address"}],"stateMutability":"view"},{"type":"function","name":"permit","inputs":[{"name":"owner","type":"address","internalType":"address"},{"name":"spender","type":"address","internalType":"address"},{"name":"value","type":"uint256","internalType":"uint256"},{"name":"deadline","type":"uint256","internalType":"uint256"},{"name":"v","type":"uint8","internalType":"uint8"},{"name":"r","type":"bytes32","internalType":"bytes32"},{"name":"s","type":"bytes32","internalType":"bytes32"}],"outputs":[],"stateMutability":"nonpayable"},{"type":"function","name":"setAuthority","inputs":[{"name":"newAuthority","type":"address","internalType":"contract Authority"}],"outputs":[],"stateMutability":"nonpayable"},{"type":"function","name":"setBeforeTransferHook","inputs":[{"name":"_hook","type":"address","internalType":"address"}],"outputs":[],"stateMutability":"nonpayable"},{"type":"function","name":"supportsInterface","inputs":[{"name":"interfaceId","type":"bytes4","internalType":"bytes4"}],"outputs":[{"name":"","type":"bool","internalType":"bool"}],"stateMutability":"view"},{"type":"function","name":"symbol","inputs":[],"outputs":[{"name":"","type":"string","internalType":"string"}],"stateMutability":"view"},{"type":"function","name":"totalSupply","inputs":[],"outputs":[{"name":"","type":"uint256","internalType":"uint256"}],"stateMutability":"view"},{"type":"function","name":"transfer","inputs":[{"name":"to","type":"address","internalType":"address"},{"name":"amount","type":"uint256","internalType":"uint256"}],"outputs":[{"name":"","type":"bool","internalType":"bool"}],"stateMutability":"nonpayable"},{"type":"function","name":"transferFrom","inputs":[{"name":"from","type":"address","internalType":"address"},{"name":"to","type":"address","internalType":"address"},{"name":"amount","type":"uint256","internalType":"uint256"}],"outputs":[{"name":"","type":"bool","internalType":"bool"}],"stateMutability":"nonpayable"},{"type":"function","name":"transferOwnership","inputs":[{"name":"newOwner","type":"address","internalType":"address"}],"outputs":[],"stateMutability":"nonpayable"},{"type":"event","name":"Approval","inputs":[{"name":"owner","type":"address","indexed":true,"internalType":"address"},{"name":"spender","type":"address","indexed":true,"internalType":"address"},{"name":"amount","type":"uint256","indexed":false,"internalType":"uint256"}],"anonymous":false},{"type":"event","name":"AuthorityUpdated","inputs":[{"name":"user","type":"address","indexed":true,"internalType":"address"},{"name":"newAuthority","type":"address","indexed":true,"internalType":"contract Authority"}],"anonymous":false},{"type":"event","name":"Enter","inputs":[{"name":"from","type":"address","indexed":true,"internalType":"address"},{"name":"asset","type":"address","indexed":true,"internalType":"address"},{"name":"amount","type":"uint256","indexed":false,"internalType":"uint256"},{"name":"to","type":"address","indexed":true,"internalType":"address"},{"name":"shares","type":"uint256","indexed":false,"internalType":"uint256"}],"anonymous":false},{"type":"event","name":"Exit","inputs":[{"name":"to","type":"address","indexed":true,"internalType":"address"},{"name":"asset","type":"address","indexed":true,"internalType":"address"},{"name":"amount","type":"uint256","indexed":false,"internalType":"uint256"},{"name":"from","type":"address","indexed":true,"internalType":"address"},{"name":"shares","type":"uint256","indexed":false,"internalType":"uint256"}],"anonymous":false},{"type":"event","name":"OwnershipTransferred","inputs":[{"name":"user","type":"address","indexed":true,"internalType":"address"},{"name":"newOwner","type":"address","indexed":true,"internalType":"address"}],"anonymous":false},{"type":"event","name":"Transfer","inputs":[{"name":"from","type":"address","indexed":true,"internalType":"address"},{"name":"to","type":"address","indexed":true,"internalType":"address"},{"name":"amount","type":"uint256","indexed":false,"internalType":"uint256"}],"anonymous":false},{"type":"error","name":"AddressEmptyCode","inputs":[{"name":"target","type":"address","internalType":"address"}]},{"type":"error","name":"AddressInsufficientBalance","inputs":[{"name":"account","type":"address","internalType":"address"}]},{"type":"error","name":"FailedInnerCall","inputs":[]}],"bytecode":{"object":"0x60e060405234801562000010575f80fd5b50604051620022e8380380620022e8833981016040819052620000339162000263565b835f848484836200004584826200038c565b5060016200005483826200038c565b5060ff81166080524660a0526200006a6200010b565b60c0525050600680546001600160a01b038086166001600160a01b03199283168117909355600780549186169190921617905560405190915033907f8be0079c531659141344cd1fd0a4f28419497f9722a3daafe3b4186f6b6457e0905f90a36040516001600160a01b0382169033907fa3396fd7f6e0a21b50e5089d2da70d5ac0a3bbbd1f617a93f134b76389980198905f90a3505050505050620004ce565b5f7f8b73c3c69bb8fe3d512ecc4cf759cc79239f7b179b0ffacaa9a75d522b39400f5f6040516200013d919062000454565b6040805191829003822060208301939093528101919091527fc89efdaa54c0f20c7adf612882df0950f5a951637e0307cdcb4c672f298b8bc660608201524660808201523060a082015260c00160405160208183030381529060405280519060200120905090565b634e487b7160e01b5f52604160045260245ffd5b5f82601f830112620001c9575f80fd5b81516001600160401b0380821115620001e657620001e6620001a5565b604051601f8301601f19908116603f01168101908282118183101715620002115762000211620001a5565b816040528381526020925086838588010111156200022d575f80fd5b5f91505b8382101562000250578582018301518183018401529082019062000231565b5f93810190920192909252949350505050565b5f805f806080858703121562000277575f80fd5b84516001600160a01b03811681146200028e575f80fd5b60208601519094506001600160401b0380821115620002ab575f80fd5b620002b988838901620001b9565b94506040870151915080821115620002cf575f80fd5b50620002de87828801620001b9565b925050606085015160ff81168114620002f5575f80fd5b939692955090935050565b600181811c908216806200031557607f821691505b6020821081036200033457634e487b7160e01b5f52602260045260245ffd5b50919050565b601f82111562000387575f81815260208120601f850160051c81016020861015620003625750805b601f850160051c820191505b8181101562000383578281556001016200036e565b5050505b505050565b81516001600160401b03811115620003a857620003a8620001a5565b620003c081620003b9845462000300565b846200033a565b602080601f831160018114620003f6575f8415620003de5750858301515b5f19600386901b1c1916600185901b17855562000383565b5f85815260208120601f198616915b82811015620004265788860151825594840194600190910190840162000405565b50858210156200044457878501515f19600388901b60f8161c191681555b5050505050600190811b01905550565b5f808354620004638162000300565b600182811680156200047e57600181146200049457620004c2565b60ff1984168752821515830287019450620004c2565b875f526020805f205f5b85811015620004b95781548a8201529084019082016200049e565b50505082870194505b50929695505050505050565b60805160a05160c051611def620004f95f395f61092f01525f6108fa01525f6102d50152611def5ff3fe60806040526004361061017e575f3560e01c80637ecebe00116100cd578063bc197c8111610087578063dd62ed3e11610062578063dd62ed3e146104c2578063f23a6e61146104f8578063f2fde38b14610523578063f6e715d014610542575f80fd5b8063bc197c8114610459578063bf7e214f14610484578063d505accf146104a3575f80fd5b80637ecebe00146103865780637f5a7c7b146103b15780638929565f146103e85780638da5cb5b1461040757806395d89b4114610426578063a9059cbb1461043a575f80fd5b8063224d8703116101385780633644e515116101135780633644e5151461030957806339d6ba321461031d57806370a082311461033c5780637a9e5e4b14610367575f80fd5b8063224d87031461027957806323b872dd146102a5578063313ce567146102c4575f80fd5b806301ffc9a71461018957806306fdde03146101bd578063095ea7b3146101de578063150b7a02146101fd57806318160ddd1461023557806318457e6114610258575f80fd5b3661018557005b5f80fd5b348015610194575f80fd5b506101a86101a3366004611513565b610561565b60405190151581526020015b60405180910390f35b3480156101c8575f80fd5b506101d1610597565b6040516101b49190611587565b3480156101e9575f80fd5b506101a86101f83660046115ad565b610622565b348015610208575f80fd5b5061021c610217366004611688565b61068d565b6040516001600160e01b031990911681526020016101b4565b348015610240575f80fd5b5061024a60025481565b6040519081526020016101b4565b348015610263575f80fd5b506102776102723660046116f0565b61069e565b005b348015610284575f80fd5b5061029861029336600461178f565b610763565b6040516101b49190611822565b3480156102b0575f80fd5b506101a86102bf366004611882565b6108d7565b3480156102cf575f80fd5b506102f77f000000000000000000000000000000000000000000000000000000000000000081565b60405160ff90911681526020016101b4565b348015610314575f80fd5b5061024a6108f7565b348015610328575f80fd5b506102776103373660046116f0565b610951565b348015610347575f80fd5b5061024a6103563660046118c0565b60036020525f908152604090205481565b348015610372575f80fd5b506102776103813660046118c0565b6109ff565b348015610391575f80fd5b5061024a6103a03660046118c0565b60056020525f908152604090205481565b3480156103bc575f80fd5b506008546103d0906001600160a01b031681565b6040516001600160a01b0390911681526020016101b4565b3480156103f3575f80fd5b506102776104023660046118c0565b610ae4565b348015610412575f80fd5b506006546103d0906001600160a01b031681565b348015610431575f80fd5b506101d1610b37565b348015610445575f80fd5b506101a86104543660046115ad565b610b44565b348015610464575f80fd5b5061021c610473366004611958565b63bc197c8160e01b95945050505050565b34801561048f575f80fd5b506007546103d0906001600160a01b031681565b3480156104ae575f80fd5b506102776104bd3660046119ff565b610b59565b3480156104cd575f80fd5b5061024a6104dc366004611a70565b600460209081525f928352604080842090915290825290205481565b348015610503575f80fd5b5061021c610512366004611aa7565b63f23a6e6160e01b95945050505050565b34801561052e575f80fd5b5061027761053d3660046118c0565b610d97565b34801561054d575f80fd5b506101d161055c366004611b0b565b610e13565b5f6001600160e01b03198216630271189760e51b148061059157506301ffc9a760e01b6001600160e01b03198316145b92915050565b5f80546105a390611b8f565b80601f01602080910402602001604051908101604052809291908181526020018280546105cf90611b8f565b801561061a5780601f106105f15761010080835404028352916020019161061a565b820191905f5260205f20905b8154815290600101906020018083116105fd57829003601f168201915b505050505081565b335f8181526004602090815260408083206001600160a01b038716808552925280832085905551919290917f8c5be1e5ebec7d5bd14f71427d1e84f3dd0314c0f7b2291e5b200ac8c7c3b9259061067c9086815260200190565b60405180910390a350600192915050565b630a85bd0160e11b5b949350505050565b6106b3335f356001600160e01b031916610ebe565b6106d85760405162461bcd60e51b81526004016106cf90611bc7565b60405180910390fd5b6106e28282610f64565b82156106fc576106fc6001600160a01b0385168685610fcb565b816001600160a01b0316846001600160a01b0316866001600160a01b03167fe0c82280a1164680e0cf43be7db4c4c9f985423623ad7a544fb76c772bdc60438685604051610754929190918252602082015260400190565b60405180910390a45050505050565b606061077a335f356001600160e01b031916610ebe565b6107965760405162461bcd60e51b81526004016106cf90611bc7565b858067ffffffffffffffff8111156107b0576107b06115d7565b6040519080825280602002602001820160405280156107e357816020015b60608152602001906001900390816107ce5790505b5091505f5b818110156108cb5761089d87878381811061080557610805611bed565b90506020028101906108179190611c01565b8080601f0160208091040260200160405190810160405280939291908181526020018383808284375f9201919091525089925088915085905081811061085f5761085f611bed565b905060200201358b8b8581811061087857610878611bed565b905060200201602081019061088d91906118c0565b6001600160a01b0316919061104e565b8382815181106108af576108af611bed565b6020026020010181905250806108c490611c58565b90506107e8565b50509695505050505050565b5f6108e284846110e7565b6108ed848484611164565b90505b9392505050565b5f7f0000000000000000000000000000000000000000000000000000000000000000461461092c5761092761123e565b905090565b507f000000000000000000000000000000000000000000000000000000000000000090565b610966335f356001600160e01b031916610ebe565b6109825760405162461bcd60e51b81526004016106cf90611bc7565b821561099d5761099d6001600160a01b0385168630866112d6565b6109a7828261136e565b816001600160a01b0316846001600160a01b0316866001600160a01b03167fea00f88768a86184a6e515238a549c171769fe7460a011d6fd0bcd48ca078ea48685604051610754929190918252602082015260400190565b6006546001600160a01b0316331480610a91575060075460405163b700961360e01b81526001600160a01b039091169063b700961390610a5290339030906001600160e01b03195f351690600401611c70565b602060405180830381865afa158015610a6d573d5f803e3d5ffd5b505050506040513d601f19601f82011682018060405250810190610a919190611c9d565b610a99575f80fd5b600780546001600160a01b0319166001600160a01b03831690811790915560405133907fa3396fd7f6e0a21b50e5089d2da70d5ac0a3bbbd1f617a93f134b76389980198905f90a350565b610af9335f356001600160e01b031916610ebe565b610b155760405162461bcd60e51b81526004016106cf90611bc7565b600880546001600160a01b0319166001600160a01b0392909216919091179055565b600180546105a390611b8f565b5f610b4f33846110e7565b6108f083836113bd565b42841015610ba95760405162461bcd60e51b815260206004820152601760248201527f5045524d49545f444541444c494e455f4558504952454400000000000000000060448201526064016106cf565b5f6001610bb46108f7565b6001600160a01b038a81165f8181526005602090815260409182902080546001810190915582517f6e71edae12b1b97f4d1f60370fef10105fa2faae0126114a169c64845d6126c98184015280840194909452938d166060840152608083018c905260a083019390935260c08083018b90528151808403909101815260e08301909152805192019190912061190160f01b6101008301526101028201929092526101228101919091526101420160408051601f1981840301815282825280516020918201205f84529083018083525260ff871690820152606081018590526080810184905260a0016020604051602081039080840390855afa158015610cbc573d5f803e3d5ffd5b5050604051601f1901519150506001600160a01b03811615801590610cf25750876001600160a01b0316816001600160a01b0316145b610d2f5760405162461bcd60e51b815260206004820152600e60248201526d24a72b20a624a22fa9a4a3a722a960911b60448201526064016106cf565b6001600160a01b039081165f9081526004602090815260408083208a8516808552908352928190208990555188815291928a16917f8c5be1e5ebec7d5bd14f71427d1e84f3dd0314c0f7b2291e5b200ac8c7c3b925910160405180910390a350505050505050565b610dac335f356001600160e01b031916610ebe565b610dc85760405162461bcd60e51b81526004016106cf90611bc7565b600680546001600160a01b0319166001600160a01b03831690811790915560405133907f8be0079c531659141344cd1fd0a4f28419497f9722a3daafe3b4186f6b6457e0905f90a350565b6060610e2a335f356001600160e01b031916610ebe565b610e465760405162461bcd60e51b81526004016106cf90611bc7565b610e9084848080601f0160208091040260200160405190810160405280939291908181526020018383808284375f9201919091525050506001600160a01b0388169190508461104e565b90506106966040518060400160405280600b81526020016a6d616e61676520646f6e6560a81b815250611420565b6007545f906001600160a01b03168015801590610f45575060405163b700961360e01b81526001600160a01b0382169063b700961390610f0690879030908890600401611c70565b602060405180830381865afa158015610f21573d5f803e3d5ffd5b505050506040513d601f19601f82011682018060405250810190610f459190611c9d565b8061069657506006546001600160a01b03858116911614949350505050565b6001600160a01b0382165f9081526003602052604081208054839290610f8b908490611cbc565b90915550506002805482900390556040518181525f906001600160a01b038416905f80516020611d9a833981519152906020015b60405180910390a35050565b5f60405163a9059cbb60e01b81526001600160a01b038416600482015282602482015260205f6044835f895af13d15601f3d1160015f5114161716915050806110485760405162461bcd60e51b815260206004820152600f60248201526e1514905394d1915497d19052531151608a1b60448201526064016106cf565b50505050565b6060814710156110735760405163cd78605960e01b81523060048201526024016106cf565b5f80856001600160a01b0316848660405161108e9190611ccf565b5f6040518083038185875af1925050503d805f81146110c8576040519150601f19603f3d011682016040523d82523d5f602084013e6110cd565b606091505b50915091506110dd868383611466565b9695505050505050565b6008546001600160a01b03161561116057600854604051630abd626b60e41b81526001600160a01b03848116600483015283811660248301523360448301529091169063abd626b0906064015f6040518083038186803b158015611149575f80fd5b505afa15801561115b573d5f803e3d5ffd5b505050505b5050565b6001600160a01b0383165f9081526004602090815260408083203384529091528120545f1981146111bd576111998382611cbc565b6001600160a01b0386165f9081526004602090815260408083203384529091529020555b6001600160a01b0385165f90815260036020526040812080548592906111e4908490611cbc565b90915550506001600160a01b038085165f81815260036020526040908190208054870190555190918716905f80516020611d9a8339815191529061122b9087815260200190565b60405180910390a3506001949350505050565b5f7f8b73c3c69bb8fe3d512ecc4cf759cc79239f7b179b0ffacaa9a75d522b39400f5f60405161126e9190611cea565b6040805191829003822060208301939093528101919091527fc89efdaa54c0f20c7adf612882df0950f5a951637e0307cdcb4c672f298b8bc660608201524660808201523060a082015260c00160405160208183030381529060405280519060200120905090565b5f6040516323b872dd60e01b81526001600160a01b03851660048201526001600160a01b038416602482015282604482015260205f6064835f8a5af13d15601f3d1160015f5114161716915050806113675760405162461bcd60e51b81526020600482015260146024820152731514905394d1915497d19493d357d1905253115160621b60448201526064016106cf565b5050505050565b8060025f82825461137f9190611d86565b90915550506001600160a01b0382165f818152600360209081526040808320805486019055518481525f80516020611d9a8339815191529101610fbf565b335f908152600360205260408120805483919083906113dd908490611cbc565b90915550506001600160a01b0383165f81815260036020526040908190208054850190555133905f80516020611d9a8339815191529061067c9086815260200190565b611463816040516024016114349190611587565b60408051601f198184030181529190526020810180516001600160e01b031663104c13eb60e21b1790526114c2565b50565b60608261147b57611476826114cb565b6108f0565b815115801561149257506001600160a01b0384163b155b156114bb57604051639996b31560e01b81526001600160a01b03851660048201526024016106cf565b50806108f0565b611463816114f4565b8051156114db5780518082602001fd5b604051630a12f52160e11b815260040160405180910390fd5b5f6a636f6e736f6c652e6c6f6790505f80835160208501845afa505050565b5f60208284031215611523575f80fd5b81356001600160e01b0319811681146108f0575f80fd5b5f5b8381101561155457818101518382015260200161153c565b50505f910152565b5f815180845261157381602086016020860161153a565b601f01601f19169290920160200192915050565b602081525f6108f0602083018461155c565b6001600160a01b0381168114611463575f80fd5b5f80604083850312156115be575f80fd5b82356115c981611599565b946020939093013593505050565b634e487b7160e01b5f52604160045260245ffd5b604051601f8201601f1916810167ffffffffffffffff81118282101715611614576116146115d7565b604052919050565b5f82601f83011261162b575f80fd5b813567ffffffffffffffff811115611645576116456115d7565b611658601f8201601f19166020016115eb565b81815284602083860101111561166c575f80fd5b816020850160208301375f918101602001919091529392505050565b5f805f806080858703121561169b575f80fd5b84356116a681611599565b935060208501356116b681611599565b925060408501359150606085013567ffffffffffffffff8111156116d8575f80fd5b6116e48782880161161c565b91505092959194509250565b5f805f805f60a08688031215611704575f80fd5b853561170f81611599565b9450602086013561171f81611599565b935060408601359250606086013561173681611599565b949793965091946080013592915050565b5f8083601f840112611757575f80fd5b50813567ffffffffffffffff81111561176e575f80fd5b6020830191508360208260051b8501011115611788575f80fd5b9250929050565b5f805f805f80606087890312156117a4575f80fd5b863567ffffffffffffffff808211156117bb575f80fd5b6117c78a838b01611747565b909850965060208901359150808211156117df575f80fd5b6117eb8a838b01611747565b90965094506040890135915080821115611803575f80fd5b5061181089828a01611747565b979a9699509497509295939492505050565b5f602080830181845280855180835260408601915060408160051b87010192508387015f5b8281101561187557603f1988860301845261186385835161155c565b94509285019290850190600101611847565b5092979650505050505050565b5f805f60608486031215611894575f80fd5b833561189f81611599565b925060208401356118af81611599565b929592945050506040919091013590565b5f602082840312156118d0575f80fd5b81356108f081611599565b5f82601f8301126118ea575f80fd5b8135602067ffffffffffffffff821115611906576119066115d7565b8160051b6119158282016115eb565b928352848101820192828101908785111561192e575f80fd5b83870192505b8483101561194d57823582529183019190830190611934565b979650505050505050565b5f805f805f60a0868803121561196c575f80fd5b853561197781611599565b9450602086013561198781611599565b9350604086013567ffffffffffffffff808211156119a3575f80fd5b6119af89838a016118db565b945060608801359150808211156119c4575f80fd5b6119d089838a016118db565b935060808801359150808211156119e5575f80fd5b506119f28882890161161c565b9150509295509295909350565b5f805f805f805f60e0888a031215611a15575f80fd5b8735611a2081611599565b96506020880135611a3081611599565b95506040880135945060608801359350608088013560ff81168114611a53575f80fd5b9699959850939692959460a0840135945060c09093013592915050565b5f8060408385031215611a81575f80fd5b8235611a8c81611599565b91506020830135611a9c81611599565b809150509250929050565b5f805f805f60a08688031215611abb575f80fd5b8535611ac681611599565b94506020860135611ad681611599565b93506040860135925060608601359150608086013567ffffffffffffffff811115611aff575f80fd5b6119f28882890161161c565b5f805f8060608587031215611b1e575f80fd5b8435611b2981611599565b9350602085013567ffffffffffffffff80821115611b45575f80fd5b818701915087601f830112611b58575f80fd5b813581811115611b66575f80fd5b886020828501011115611b77575f80fd5b95986020929092019750949560400135945092505050565b600181811c90821680611ba357607f821691505b602082108103611bc157634e487b7160e01b5f52602260045260245ffd5b50919050565b6020808252600c908201526b15539055551213d49256915160a21b604082015260600190565b634e487b7160e01b5f52603260045260245ffd5b5f808335601e19843603018112611c16575f80fd5b83018035915067ffffffffffffffff821115611c30575f80fd5b602001915036819003821315611788575f80fd5b634e487b7160e01b5f52601160045260245ffd5b5f60018201611c6957611c69611c44565b5060010190565b6001600160a01b0393841681529190921660208201526001600160e01b0319909116604082015260600190565b5f60208284031215611cad575f80fd5b815180151581146108f0575f80fd5b8181038181111561059157610591611c44565b5f8251611ce081846020870161153a565b9190910192915050565b5f80835481600182811c915080831680611d0557607f831692505b60208084108203611d2457634e487b7160e01b86526022600452602486fd5b818015611d385760018114611d4d57611d78565b60ff1986168952841515850289019650611d78565b5f8a8152602090205f5b86811015611d705781548b820152908501908301611d57565b505084890196505b509498975050505050505050565b8082018082111561059157610591611c4456feddf252ad1be2c89b69c2b068fc378daa952ba7f163c4a11628f55a4df523b3efa2646970667358221220ddf126053012231807fc7dc9ed788b4b9697f860d40f25fb65a7fe829cbf967564736f6c63430008150033","linkReferences":{}},"methodIdentifiers":{"DOMAIN_SEPARATOR()":"3644e515","allowance(address,address)":"dd62ed3e","approve(address,uint256)":"095ea7b3","authority()":"bf7e214f","balanceOf(address)":"70a08231","decimals()":"313ce567","enter(address,address,uint256,address,uint256)":"39d6ba32","exit(address,address,uint256,address,uint256)":"18457e61","hook()":"7f5a7c7b","manage(address,bytes,uint256)":"f6e715d0","manage(address[],bytes[],uint256[])":"224d8703","name()":"06fdde03","nonces(address)":"7ecebe00","onERC1155BatchReceived(address,address,uint256[],uint256[],bytes)":"bc197c81","onERC1155Received(address,address,uint256,uint256,bytes)":"f23a6e61","onERC721Received(address,address,uint256,bytes)":"150b7a02","owner()":"8da5cb5b","permit(address,address,uint256,uint256,uint8,bytes32,bytes32)":"d505accf","setAuthority(address)":"7a9e5e4b","setBeforeTransferHook(address)":"8929565f","supportsInterface(bytes4)":"01ffc9a7","symbol()":"95d89b41","totalSupply()":"18160ddd","transfer(address,uint256)":"a9059cbb","transferFrom(address,address,uint256)":"23b872dd","transferOwnership(address)":"f2fde38b"},"id":105}