{"abi":[{"type":"constructor","inputs":[],"stateMutability":"nonpayable"},{"type":"function","name":"CCR","inputs":[],"outputs":[{"name":"","type":"uint256","internalType":"uint256"}],"stateMutability":"view"},{"type":"function","name":"MCR","inputs":[],"outputs":[{"name":"","type":"uint256","internalType":"uint256"}],"stateMutability":"view"},{"type":"function","name":"SCR","inputs":[],"outputs":[{"name":"","type":"uint256","internalType":"uint256"}],"stateMutability":"view"},{"type":"function","name":"activePool","inputs":[],"outputs":[{"name":"","type":"address","internalType":"contract IActivePool"}],"stateMutability":"view"},{"type":"function","name":"addColl","inputs":[{"name":"_troveId","type":"uint256","internalType":"uint256"},{"name":"_collAmount","type":"uint256","internalType":"uint256"}],"outputs":[],"stateMutability":"nonpayable"},{"type":"function","name":"addManagerOf","inputs":[{"name":"","type":"uint256","internalType":"uint256"}],"outputs":[{"name":"","type":"address","internalType":"address"}],"stateMutability":"view"},{"type":"function","name":"adjustTrove","inputs":[{"name":"_troveId","type":"uint256","internalType":"uint256"},{"name":"_collChange","type":"uint256","internalType":"uint256"},{"name":"_isCollIncrease","type":"bool","internalType":"bool"},{"name":"_feUSDChange","type":"uint256","internalType":"uint256"},{"name":"_isDebtIncrease","type":"bool","internalType":"bool"},{"name":"_maxUpfrontFee","type":"uint256","internalType":"uint256"}],"outputs":[],"stateMutability":"nonpayable"},{"type":"function","name":"adjustTroveInterestRate","inputs":[{"name":"_troveId","type":"uint256","internalType":"uint256"},{"name":"_newAnnualInterestRate","type":"uint256","internalType":"uint256"},{"name":"_upperHint","type":"uint256","internalType":"uint256"},{"name":"_lowerHint","type":"uint256","internalType":"uint256"},{"name":"_maxUpfrontFee","type":"uint256","internalType":"uint256"}],"outputs":[],"stateMutability":"nonpayable"},{"type":"function","name":"adjustZombieTrove","inputs":[{"name":"_troveId","type":"uint256","internalType":"uint256"},{"name":"_collChange","type":"uint256","internalType":"uint256"},{"name":"_isCollIncrease","type":"bool","internalType":"bool"},{"name":"_feUSDChange","type":"uint256","internalType":"uint256"},{"name":"_isDebtIncrease","type":"bool","internalType":"bool"},{"name":"_upperHint","type":"uint256","internalType":"uint256"},{"name":"_lowerHint","type":"uint256","internalType":"uint256"},{"name":"_maxUpfrontFee","type":"uint256","internalType":"uint256"}],"outputs":[],"stateMutability":"nonpayable"},{"type":"function","name":"adminShutdown","inputs":[],"outputs":[],"stateMutability":"nonpayable"},{"type":"function","name":"applyPendingDebt","inputs":[{"name":"_troveId","type":"uint256","internalType":"uint256"},{"name":"_lowerHint","type":"uint256","internalType":"uint256"},{"name":"_upperHint","type":"uint256","internalType":"uint256"}],"outputs":[],"stateMutability":"nonpayable"},{"type":"function","name":"checkBatchManagerExists","inputs":[{"name":"_batchManager","type":"address","internalType":"address"}],"outputs":[{"name":"","type":"bool","internalType":"bool"}],"stateMutability":"view"},{"type":"function","name":"claimCollateral","inputs":[],"outputs":[],"stateMutability":"nonpayable"},{"type":"function","name":"closeTrove","inputs":[{"name":"_troveId","type":"uint256","internalType":"uint256"}],"outputs":[],"stateMutability":"nonpayable"},{"type":"function","name":"getEntireSystemColl","inputs":[],"outputs":[{"name":"entireSystemColl","type":"uint256","internalType":"uint256"}],"stateMutability":"view"},{"type":"function","name":"getEntireSystemDebt","inputs":[],"outputs":[{"name":"entireSystemDebt","type":"uint256","internalType":"uint256"}],"stateMutability":"view"},{"type":"function","name":"getInterestBatchManager","inputs":[{"name":"_account","type":"address","internalType":"address"}],"outputs":[{"name":"","type":"tuple","internalType":"struct IBorrowerOperations.InterestBatchManager","components":[{"name":"minInterestRate","type":"uint128","internalType":"uint128"},{"name":"maxInterestRate","type":"uint128","internalType":"uint128"},{"name":"minInterestRateChangePeriod","type":"uint256","internalType":"uint256"}]}],"stateMutability":"view"},{"type":"function","name":"getInterestIndividualDelegateOf","inputs":[{"name":"_troveId","type":"uint256","internalType":"uint256"}],"outputs":[{"name":"","type":"tuple","internalType":"struct IBorrowerOperations.InterestIndividualDelegate","components":[{"name":"account","type":"address","internalType":"address"},{"name":"minInterestRate","type":"uint128","internalType":"uint128"},{"name":"maxInterestRate","type":"uint128","internalType":"uint128"},{"name":"minInterestRateChangePeriod","type":"uint256","internalType":"uint256"}]}],"stateMutability":"view"},{"type":"function","name":"hasBeenShutDown","inputs":[],"outputs":[{"name":"","type":"bool","internalType":"bool"}],"stateMutability":"view"},{"type":"function","name":"initialize","inputs":[{"name":"_addressesRegistry","type":"address","internalType":"contract IAddressesRegistry"}],"outputs":[],"stateMutability":"nonpayable"},{"type":"function","name":"interestBatchManagerOf","inputs":[{"name":"","type":"uint256","internalType":"uint256"}],"outputs":[{"name":"","type":"address","internalType":"address"}],"stateMutability":"view"},{"type":"function","name":"isTemporaryShutdown","inputs":[],"outputs":[{"name":"","type":"bool","internalType":"bool"}],"stateMutability":"view"},{"type":"function","name":"lowerBatchManagementFee","inputs":[{"name":"_newAnnualManagementFee","type":"uint256","internalType":"uint256"}],"outputs":[],"stateMutability":"nonpayable"},{"type":"function","name":"maxDebtCap","inputs":[],"outputs":[{"name":"","type":"uint256","internalType":"uint256"}],"stateMutability":"view"},{"type":"function","name":"onLiquidateTrove","inputs":[{"name":"_troveId","type":"uint256","internalType":"uint256"}],"outputs":[],"stateMutability":"nonpayable"},{"type":"function","name":"openTrove","inputs":[{"name":"_owner","type":"address","internalType":"address"},{"name":"_ownerIndex","type":"uint256","internalType":"uint256"},{"name":"_collAmount","type":"uint256","internalType":"uint256"},{"name":"_feUSDAmount","type":"uint256","internalType":"uint256"},{"name":"_upperHint","type":"uint256","internalType":"uint256"},{"name":"_lowerHint","type":"uint256","internalType":"uint256"},{"name":"_annualInterestRate","type":"uint256","internalType":"uint256"},{"name":"_maxUpfrontFee","type":"uint256","internalType":"uint256"},{"name":"_addManager","type":"address","internalType":"address"},{"name":"_removeManager","type":"address","internalType":"address"},{"name":"_receiver","type":"address","internalType":"address"}],"outputs":[{"name":"","type":"uint256","internalType":"uint256"}],"stateMutability":"nonpayable"},{"type":"function","name":"openTroveAndJoinInterestBatchManager","inputs":[{"name":"_params","type":"tuple","internalType":"struct IBorrowerOperations.OpenTroveAndJoinInterestBatchManagerParams","components":[{"name":"owner","type":"address","internalType":"address"},{"name":"ownerIndex","type":"uint256","internalType":"uint256"},{"name":"collAmount","type":"uint256","internalType":"uint256"},{"name":"feUSDAmount","type":"uint256","internalType":"uint256"},{"name":"upperHint","type":"uint256","internalType":"uint256"},{"name":"lowerHint","type":"uint256","internalType":"uint256"},{"name":"interestBatchManager","type":"address","internalType":"address"},{"name":"maxUpfrontFee","type":"uint256","internalType":"uint256"},{"name":"addManager","type":"address","internalType":"address"},{"name":"removeManager","type":"address","internalType":"address"},{"name":"receiver","type":"address","internalType":"address"}]}],"outputs":[{"name":"","type":"uint256","internalType":"uint256"}],"stateMutability":"nonpayable"},{"type":"function","name":"registerBatchManager","inputs":[{"name":"_minInterestRate","type":"uint128","internalType":"uint128"},{"name":"_maxInterestRate","type":"uint128","internalType":"uint128"},{"name":"_currentInterestRate","type":"uint128","internalType":"uint128"},{"name":"_annualManagementFee","type":"uint128","internalType":"uint128"},{"name":"_minInterestRateChangePeriod","type":"uint128","internalType":"uint128"}],"outputs":[],"stateMutability":"nonpayable"},{"type":"function","name":"removeFromBatch","inputs":[{"name":"_troveId","type":"uint256","internalType":"uint256"},{"name":"_newAnnualInterestRate","type":"uint256","internalType":"uint256"},{"name":"_upperHint","type":"uint256","internalType":"uint256"},{"name":"_lowerHint","type":"uint256","internalType":"uint256"},{"name":"_maxUpfrontFee","type":"uint256","internalType":"uint256"}],"outputs":[],"stateMutability":"nonpayable"},{"type":"function","name":"removeInterestIndividualDelegate","inputs":[{"name":"_troveId","type":"uint256","internalType":"uint256"}],"outputs":[],"stateMutability":"nonpayable"},{"type":"function","name":"removeManagerReceiverOf","inputs":[{"name":"","type":"uint256","internalType":"uint256"}],"outputs":[{"name":"manager","type":"address","internalType":"address"},{"name":"receiver","type":"address","internalType":"address"}],"stateMutability":"view"},{"type":"function","name":"repayfeUSD","inputs":[{"name":"_troveId","type":"uint256","internalType":"uint256"},{"name":"_feUSDAmount","type":"uint256","internalType":"uint256"}],"outputs":[],"stateMutability":"nonpayable"},{"type":"function","name":"resumeFromShutdown","inputs":[],"outputs":[],"stateMutability":"nonpayable"},{"type":"function","name":"setAddManager","inputs":[{"name":"_troveId","type":"uint256","internalType":"uint256"},{"name":"_manager","type":"address","internalType":"address"}],"outputs":[],"stateMutability":"nonpayable"},{"type":"function","name":"setBatchManagerAnnualInterestRate","inputs":[{"name":"_newAnnualInterestRate","type":"uint128","internalType":"uint128"},{"name":"_upperHint","type":"uint256","internalType":"uint256"},{"name":"_lowerHint","type":"uint256","internalType":"uint256"},{"name":"_maxUpfrontFee","type":"uint256","internalType":"uint256"}],"outputs":[],"stateMutability":"nonpayable"},{"type":"function","name":"setCCR","inputs":[{"name":"_ccr","type":"uint256","internalType":"uint256"}],"outputs":[],"stateMutability":"nonpayable"},{"type":"function","name":"setInterestBatchManager","inputs":[{"name":"_troveId","type":"uint256","internalType":"uint256"},{"name":"_newBatchManager","type":"address","internalType":"address"},{"name":"_upperHint","type":"uint256","internalType":"uint256"},{"name":"_lowerHint","type":"uint256","internalType":"uint256"},{"name":"_maxUpfrontFee","type":"uint256","internalType":"uint256"}],"outputs":[],"stateMutability":"nonpayable"},{"type":"function","name":"setInterestIndividualDelegate","inputs":[{"name":"_troveId","type":"uint256","internalType":"uint256"},{"name":"_delegate","type":"address","internalType":"address"},{"name":"_minInterestRate","type":"uint128","internalType":"uint128"},{"name":"_maxInterestRate","type":"uint128","internalType":"uint128"},{"name":"_newAnnualInterestRate","type":"uint256","internalType":"uint256"},{"name":"_upperHint","type":"uint256","internalType":"uint256"},{"name":"_lowerHint","type":"uint256","internalType":"uint256"},{"name":"_maxUpfrontFee","type":"uint256","internalType":"uint256"},{"name":"_minInterestRateChangePeriod","type":"uint256","internalType":"uint256"}],"outputs":[],"stateMutability":"nonpayable"},{"type":"function","name":"setMCR","inputs":[{"name":"_mcr","type":"uint256","internalType":"uint256"}],"outputs":[],"stateMutability":"nonpayable"},{"type":"function","name":"setMaxDebtCap","inputs":[{"name":"_maxDebtCap","type":"uint256","internalType":"uint256"}],"outputs":[],"stateMutability":"nonpayable"},{"type":"function","name":"setPriceFeed","inputs":[{"name":"_priceFeed","type":"address","internalType":"address"}],"outputs":[],"stateMutability":"nonpayable"},{"type":"function","name":"setRemoveManager","inputs":[{"name":"_troveId","type":"uint256","internalType":"uint256"},{"name":"_manager","type":"address","internalType":"address"}],"outputs":[],"stateMutability":"nonpayable"},{"type":"function","name":"setRemoveManagerWithReceiver","inputs":[{"name":"_troveId","type":"uint256","internalType":"uint256"},{"name":"_manager","type":"address","internalType":"address"},{"name":"_receiver","type":"address","internalType":"address"}],"outputs":[],"stateMutability":"nonpayable"},{"type":"function","name":"shutdown","inputs":[],"outputs":[],"stateMutability":"nonpayable"},{"type":"function","name":"shutdownFromOracleFailure","inputs":[{"name":"_failedOracleAddr","type":"address","internalType":"address"}],"outputs":[],"stateMutability":"nonpayable"},{"type":"function","name":"switchBatchManager","inputs":[{"name":"_troveId","type":"uint256","internalType":"uint256"},{"name":"_removeUpperHint","type":"uint256","internalType":"uint256"},{"name":"_removeLowerHint","type":"uint256","internalType":"uint256"},{"name":"_newBatchManager","type":"address","internalType":"address"},{"name":"_addUpperHint","type":"uint256","internalType":"uint256"},{"name":"_addLowerHint","type":"uint256","internalType":"uint256"},{"name":"_maxUpfrontFee","type":"uint256","internalType":"uint256"}],"outputs":[],"stateMutability":"nonpayable"},{"type":"function","name":"withdrawColl","inputs":[{"name":"_troveId","type":"uint256","internalType":"uint256"},{"name":"_collWithdrawal","type":"uint256","internalType":"uint256"}],"outputs":[],"stateMutability":"nonpayable"},{"type":"function","name":"withdrawfeUSD","inputs":[{"name":"_troveId","type":"uint256","internalType":"uint256"},{"name":"_feUSDAmount","type":"uint256","internalType":"uint256"},{"name":"_maxUpfrontFee","type":"uint256","internalType":"uint256"}],"outputs":[],"stateMutability":"nonpayable"},{"type":"event","name":"ActivePoolAddressChanged","inputs":[{"name":"_newActivePoolAddress","type":"address","indexed":false,"internalType":"address"}],"anonymous":false},{"type":"event","name":"AddManagerUpdated","inputs":[{"name":"_troveId","type":"uint256","indexed":true,"internalType":"uint256"},{"name":"_newAddManager","type":"address","indexed":false,"internalType":"address"}],"anonymous":false},{"type":"event","name":"AdminShutdown","inputs":[{"name":"_timestamp","type":"uint256","indexed":false,"internalType":"uint256"}],"anonymous":false},{"type":"event","name":"CollSurplusPoolAddressChanged","inputs":[{"name":"_collSurplusPoolAddress","type":"address","indexed":false,"internalType":"address"}],"anonymous":false},{"type":"event","name":"DefaultPoolAddressChanged","inputs":[{"name":"_newDefaultPoolAddress","type":"address","indexed":false,"internalType":"address"}],"anonymous":false},{"type":"event","name":"FeUSDTokenAddressChanged","inputs":[{"name":"_feUSDTokenAddress","type":"address","indexed":false,"internalType":"address"}],"anonymous":false},{"type":"event","name":"GasPoolAddressChanged","inputs":[{"name":"_gasPoolAddress","type":"address","indexed":false,"internalType":"address"}],"anonymous":false},{"type":"event","name":"Initialized","inputs":[{"name":"version","type":"uint8","indexed":false,"internalType":"uint8"}],"anonymous":false},{"type":"event","name":"PriceFeedAddressChanged","inputs":[{"name":"_newPriceFeedAddress","type":"address","indexed":false,"internalType":"address"}],"anonymous":false},{"type":"event","name":"RemoveManagerAndReceiverUpdated","inputs":[{"name":"_troveId","type":"uint256","indexed":true,"internalType":"uint256"},{"name":"_newRemoveManager","type":"address","indexed":false,"internalType":"address"},{"name":"_newReceiver","type":"address","indexed":false,"internalType":"address"}],"anonymous":false},{"type":"event","name":"ShutDown","inputs":[{"name":"_tcr","type":"uint256","indexed":false,"internalType":"uint256"}],"anonymous":false},{"type":"event","name":"ShutDownFromOracleFailure","inputs":[{"name":"_oracleAddress","type":"address","indexed":false,"internalType":"address"}],"anonymous":false},{"type":"event","name":"ShutdownResumed","inputs":[{"name":"_timestamp","type":"uint256","indexed":false,"internalType":"uint256"}],"anonymous":false},{"type":"event","name":"SortedTrovesAddressChanged","inputs":[{"name":"_sortedTrovesAddress","type":"address","indexed":false,"internalType":"address"}],"anonymous":false},{"type":"event","name":"TroveManagerAddressChanged","inputs":[{"name":"_newTroveManagerAddress","type":"address","indexed":false,"internalType":"address"}],"anonymous":false},{"type":"event","name":"TroveNFTAddressChanged","inputs":[{"name":"_newTroveNFTAddress","type":"address","indexed":false,"internalType":"address"}],"anonymous":false},{"type":"error","name":"AnnualManagementFeeTooHigh","inputs":[]},{"type":"error","name":"BatchInterestRateChangePeriodNotPassed","inputs":[]},{"type":"error","name":"BatchManagerExists","inputs":[]},{"type":"error","name":"BatchManagerNotNew","inputs":[]},{"type":"error","name":"CallerNotAdmin","inputs":[]},{"type":"error","name":"CallerNotPriceFeed","inputs":[]},{"type":"error","name":"CallerNotTroveManager","inputs":[]},{"type":"error","name":"CollWithdrawalTooHigh","inputs":[]},{"type":"error","name":"DebtBelowMin","inputs":[]},{"type":"error","name":"DelegateInterestRateChangePeriodNotPassed","inputs":[]},{"type":"error","name":"EmptyManager","inputs":[]},{"type":"error","name":"ICRBelowMCR","inputs":[]},{"type":"error","name":"InterestNotInRange","inputs":[]},{"type":"error","name":"InterestRateNotNew","inputs":[]},{"type":"error","name":"InterestRateTooHigh","inputs":[]},{"type":"error","name":"InterestRateTooLow","inputs":[]},{"type":"error","name":"InvalidInterestBatchManager","inputs":[]},{"type":"error","name":"IsNotTemporaryShutdown","inputs":[]},{"type":"error","name":"IsShutDown","inputs":[]},{"type":"error","name":"MaxDebtCapReached","inputs":[]},{"type":"error","name":"MinGeMax","inputs":[]},{"type":"error","name":"MinInterestRateChangePeriodTooLow","inputs":[]},{"type":"error","name":"NewFeeNotLower","inputs":[]},{"type":"error","name":"NewOracleFailureDetected","inputs":[]},{"type":"error","name":"NotBorrower","inputs":[]},{"type":"error","name":"NotEnoughfeUSDBalance","inputs":[]},{"type":"error","name":"NotOwnerNorAddManager","inputs":[]},{"type":"error","name":"NotOwnerNorInterestManager","inputs":[]},{"type":"error","name":"NotOwnerNorRemoveManager","inputs":[]},{"type":"error","name":"RepaymentNotMatchingCollWithdrawal","inputs":[]},{"type":"error","name":"TCRBelowCCR","inputs":[]},{"type":"error","name":"TCRNotBelowSCR","inputs":[]},{"type":"error","name":"TemporaryShutdown","inputs":[]},{"type":"error","name":"TroveExists","inputs":[]},{"type":"error","name":"TroveInBatch","inputs":[]},{"type":"error","name":"TroveNotActive","inputs":[]},{"type":"error","name":"TroveNotInBatch","inputs":[]},{"type":"error","name":"TroveNotOpen","inputs":[]},{"type":"error","name":"TroveNotZombie","inputs":[]},{"type":"error","name":"TroveWithZeroDebt","inputs":[]},{"type":"error","name":"UpfrontFeeTooHigh","inputs":[]},{"type":"error","name":"ZeroAdjustment","inputs":[]}],"bytecode":{"object":"0x608060405234801562000010575f80fd5b506200001b62000035565b6200002562000035565b6200002f62000035565b620000f3565b5f54610100900460ff1615620000a15760405162461bcd60e51b815260206004820152602760248201527f496e697469616c697a61626c653a20636f6e747261637420697320696e697469604482015266616c697a696e6760c81b606482015260840160405180910390fd5b5f5460ff90811614620000f1575f805460ff191660ff9081179091556040519081527f7f26b83ff96e1f2b6a682f133852f6798a09c465da95921460cefb38474024989060200160405180910390a15b565b615fd680620001015f395ff3fe608060405234801561000f575f80fd5b5060043610610297575f3560e01c8063724e78da11610161578063b10b6605116100ca578063d3695fa511610084578063d3695fa514610770578063d5479cd414610783578063d6491eaf14610796578063dcfbd293146107a9578063f9ef19ca146107bc578063fc0e74d1146107cf575f80fd5b8063b10b6605146106fe578063ba5f47a614610711578063bcb266c014610724578063c440844f14610737578063c4d66de81461074a578063c6ac24651461075d575f80fd5b8063887105d31161011b578063887105d3146106825780638fef27ab1461068a5780639537f0011461069d5780639cb90ba6146106b0578063a0df5cd5146106c3578063ad9be127146106eb575f80fd5b8063724e78da146105f9578063794e57241461060c578063795d26c3146106155780637f7dde4a1461061d57806384e5253c1461063557806385c44a1a14610648575f80fd5b8063570fb750116102035780635b7ca6dc116101bd5780635b7ca6dc1461057a5780635cc2fbb51461058d5780635dcd0113146105965780635fc7fcf41461059e5780636f0b0c1c146105b157806370986fe1146105b9575f80fd5b8063570fb7501461050e5780635733d58f14610521578063580de3601461053857806358d5a9611461054b57806359f54f40146105545780635aa6d46114610567575f80fd5b80634139ad60116102545780634139ad6014610353578063452bb0e8146103665780634c1306b3146103735780634ed1bd5d1461044657806353eb2885146104e857806353feb0b1146104fb575f80fd5b806306ff8dfb1461029b5780630e01617c146102bd5780631c143ea71461031057806326f4e2521461031a578063292a3f0b1461032d578063385a128f14610340575b5f80fd5b6073546102a89060ff1681565b60405190151581526020015b60405180910390f35b6102f06102cb3660046154e3565b60376020525f9081526040902080546001909101546001600160a01b03918216911682565b604080516001600160a01b039384168152929091166020830152016102b4565b6103186107d7565b005b6103186103283660046154fa565b61084b565b61031861033b366004615545565b610ad8565b61031861034e3660046154e3565b610b4d565b6103186103613660046154e3565b610b5a565b6079546102a89060ff1681565b6103fc6103813660046154e3565b60408051608080820183525f80835260208084018290528385018290526060938401829052948152607685528390208351918201845280546001600160a01b0316825260018101546001600160801b0380821696840196909652600160801b9004909416928101929092526002909201549181019190915290565b6040805182516001600160a01b031681526020808401516001600160801b0390811691830191909152838301511691810191909152606091820151918101919091526080016102b4565b6104b8610454366004615573565b60408051606080820183525f80835260208084018290529284018190526001600160a01b0394909416845260788252928290208251938401835280546001600160801b038082168652600160801b9091041691840191909152600101549082015290565b6040805182516001600160801b0390811682526020808501519091169082015291810151908201526060016102b4565b6103186104f63660046154e3565b610b67565b6103186105093660046154e3565b610b98565b61031861051c3660046155a9565b610ba5565b61052a60715481565b6040519081526020016102b4565b6103186105463660046155df565b610f74565b61052a60725481565b6103186105623660046155df565b610fab565b6103186105753660046154e3565b610fdc565b610318610588366004615573565b61150d565b61052a60755481565b610318611574565b6103186105ac3660046155df565b6115d3565b610318611604565b6105e16105c73660046154e3565b60366020525f90815260409020546001600160a01b031681565b6040516001600160a01b0390911681526020016102b4565b610318610607366004615573565b611658565b61052a60745481565b61052a611682565b5f546105e1906201000090046001600160a01b031681565b61031861064336600461560c565b611782565b6102a8610656366004615573565b6001600160a01b03165f90815260786020526040902054600160801b90046001600160801b0316151590565b61052a6117d2565b6103186106983660046154e3565b61189b565b6103186106ab366004615666565b6118af565b61052a6106be3660046156aa565b611d45565b6105e16106d13660046154e3565b60776020525f90815260409020546001600160a01b031681565b6103186106f93660046154e3565b611e85565b61031861070c366004615748565b612053565b61031861071f366004615748565b612094565b610318610732366004615771565b6123dd565b61052a6107453660046157d2565b612594565b610318610758366004615573565b61287b565b61031861076b3660046157e9565b6129ea565b61031861077e366004615545565b612b7f565b610318610791366004615860565b612b92565b6103186107a43660046158b7565b612c35565b6103186107b73660046158f6565b612c4e565b6103186107ca3660046154fa565b612df1565b61031861324c565b6107df613373565b60795460ff16806107f2575060735460ff165b1561081057604051631de951a160e31b815260040160405180910390fd5b60016079556040514281527f7208ff4238dba72322c49561d9ab782f70b4f31d5d44c60ad4d7818efb04ef92906020015b60405180910390a1565b6108536133c8565b61085b6133ee565b606b546001600160a01b031661087085613403565b6108798661346b565b610882866134a0565b61088c818761355a565b604051632ab4fd0160e21b8152600481018790525f906001600160a01b0383169063aad3f4049060240161014060405180830381865afa1580156108d2573d5f803e3d5ffd5b505050506040513d601f19601f820116820180604052508101906108f691906159c6565b905061090887826101200151886135f7565b6109168160c0015187613689565b80516109206152fc565b604083015181526060830151602082015261093b8883615a5f565b60c08083019190915260e080850151908301528301518814801590610972575062093a8083610120015161096f9190615a76565b42105b1561098a57610987836020015183838861369d565b91505b6109948883615a5f565b60c08201525f80546040516371d4eb2160e01b8152620100009091046001600160a01b0316916371d4eb21916109ce918591600401615b07565b5f604051808303815f87803b1580156109e5575f80fd5b505af11580156109f7573d5f803e3d5ffd5b5050606f54604051634a2c35a760e11b8152600481018d9052602481018c9052604481018b9052606481018a90526001600160a01b0390911692506394586b4e91506084015f604051808303815f87803b158015610a53575f80fd5b505af1158015610a65573d5f803e3d5ffd5b505050506020830151604051630f83069360e01b81526001600160a01b03861691630f83069391610aa0918d9187908e908890600401615b2f565b5f604051808303815f87803b158015610ab7575f80fd5b505af1158015610ac9573d5f803e3d5ffd5b50505050505050505050505050565b6035546040516331a9108f60e11b815260048101849052610b4991849184916001600160a01b031690636352211e90602401602060405180830381865afa158015610b25573d5f803e3d5ffd5b505050506040513d601f19601f820116820180604052508101906107a49190615b63565b5050565b610b55613373565b607455565b610b62613373565b607155565b610b708161378d565b5f90815260766020526040812080546001600160a01b03191681556001810182905560020155565b610ba0613373565b607555565b610bad6133c8565b610bb56133ee565b610bbe33613829565b610bd133856001600160801b0316613870565b606b545f805460405163309e565760e11b81523360048201526001600160a01b0393841693620100009092049091169190839063613cacae9060240161016060405180830381865afa158015610c29573d5f803e3d5ffd5b505050506040513d601f19601f82011682018060405250810190610c4d9190615b7e565b9050610c5e338261014001516138cb565b8051610c686152fc565b60e08084015161012083015260a084015190820152610c906001600160801b038a1683615a5f565b60c080830191909152610100840151610160830152830151610cb29083615a5f565b61014082015260808301516001600160801b038a1614801590610ce7575062093a80836101400151610ce49190615a76565b42105b15610ddc575f610cf5613942565b90505f856001600160a01b03166385fe37a3846040518263ffffffff1660e01b8152600401610d249190615c0f565b602060405180830381865afa158015610d3f573d5f803e3d5ffd5b505050506040513d601f19601f82011682018060405250810190610d639190615c1e565b9050610d6f848261397c565b6101008401819052610d81908961399c565b610100830151610d919085615a76565b9350610da66001600160801b038c1685615a5f565b60c080850191909152850151610dbc9085615a5f565b6101408401525f610dcd84846139b1565b9050610dd881613a37565b5050505b6040516371d4eb2160e01b81526001600160a01b038516906371d4eb2190610e0a9084903390600401615b07565b5f604051808303815f87803b158015610e21575f80fd5b505af1158015610e33573d5f803e3d5ffd5b5050606f54604051630364aefb60e01b81523360048201526001600160a01b039091169250630364aefb9150602401602060405180830381865afa158015610e7d573d5f803e3d5ffd5b505050506040513d601f19601f82011682018060405250810190610ea19190615c35565b610f1b57606f54604051631c403f5960e01b81523360048201526001600160801b038b166024820152604481018a9052606481018990526001600160a01b0390911690631c403f59906084015f604051808303815f87803b158015610f04575f80fd5b505af1158015610f16573d5f803e3d5ffd5b505050505b60208301516101008201516040516206daed60ec1b81523360048201526024810192909252604482018490526001600160801b038b16606483015260848201526001600160a01b03861690636daed0009060a401610aa0565b606b546001600160a01b0316610f8a818461355a565b610f926152fc565b60608101839052610fa58285835f613a4e565b50505050565b606b546001600160a01b0316610fc1818461355a565b610fc96152fc565b60408101839052610fa58285835f613a4e565b606b545f8054606e546035546040516331a9108f60e11b8152600481018790526001600160a01b0395861695620100009094048416949284169390911690636352211e90602401602060405180830381865afa15801561103e573d5f803e3d5ffd5b505050506040513d601f19601f820116820180604052508101906110629190615b63565b90505f61106f86836140de565b905061107b8587614169565b604051632ab4fd0160e21b8152600481018790525f906001600160a01b0387169063aad3f4049060240161014060405180830381865afa1580156110c1573d5f803e3d5ffd5b505050506040513d601f19601f820116820180604052508101906110e591906159c6565b90506110f58433835f0151614226565b6110fd6152fc565b60408083015182526060808401516020808501919091528085015191840191909152835160a08401525f8a8152607790915220546001600160a01b0316611142615351565b6001600160a01b038216156112315760405163309e565760e11b81526001600160a01b0383811660048301528a169063613cacae9060240161016060405180830381865afa158015611196573d5f803e3d5ffd5b505050506040513d601f19601f820116820180604052508101906111ba9190615b7e565b90505f8460400151855f01516111d09190615c50565b82516111dc9190615c50565b60e08084015161012087015260a08401519086015260808301519091506112039082615a5f565b60c0808601919091526101008301516101608601528201516112259082615a5f565b6101408501525061123c565b60e080850151908401525b60025460408051630fdb11cf60e01b815281515f936001600160a01b031692630fdb11cf9260048082019391829003018187875af1158015611280573d5f803e3d5ffd5b505050506040513d601f19601f820116820180604052508101906112a49190615c63565b5090505f6112b285836139b1565b60735490915060ff166112c8576112c881613a37565b8a6001600160a01b031663735ab2a48d87878760200151885f01516040518663ffffffff1660e01b8152600401611303959493929190615c86565b5f604051808303815f87803b15801561131a575f80fd5b505af115801561132c573d5f803e3d5ffd5b505050506001600160a01b0384161561135b575f8c815260776020526040902080546001600160a01b03191690555b6040516371d4eb2160e01b81526001600160a01b038b16906371d4eb21906113899088908890600401615b07565b5f604051808303815f87803b1580156113a0575f80fd5b505af11580156113b2573d5f803e3d5ffd5b5050607054606c546040516323b872dd60e01b81526001600160a01b0391821660048201528b821660248201525f6044820152911692506323b872dd91506064016020604051808303815f875af115801561140f573d5f803e3d5ffd5b505050506040513d601f19601f820116820180604052508101906114339190615c35565b508551604051632770a7eb60e21b815233600482015260248101919091526001600160a01b038a1690639dc29fac906044015f604051808303815f87803b15801561147c575f80fd5b505af115801561148e573d5f803e3d5ffd5b505050506020860151604051634fa7288f60e11b81526001600160a01b0389811660048301526024820192909252908b1690639f4e511e906044015f604051808303815f87803b1580156114e0575f80fd5b505af11580156114f2573d5f803e3d5ffd5b505050506114ff8c6142b0565b505050505050505050505050565b6115156142f7565b60735460ff1680611528575060795460ff165b156115305750565b60016079556040516001600160a01b03821681527fbc6a72aabe3f2b93b4e83572c36881d8379588e52b1b3c66610a8595ce2c734d9060200160405180910390a150565b61157c613373565b60795460ff1661159f57604051632af3476d60e01b815260040160405180910390fd5b5f6079556040514281527f29bc0a58925608535dec31fde6ac7e64079c5a0741e60f9b7feb45db2e11dac890602001610841565b606b546001600160a01b03166115e9818461355a565b6115f16152fc565b60a08101839052610fa58285835f613a4e565b606d5460405163b32beb5b60e01b81523360048201526001600160a01b039091169063b32beb5b906024015f604051808303815f87803b158015611646575f80fd5b505af1158015610fa5573d5f803e3d5ffd5b611660613373565b600280546001600160a01b0319166001600160a01b0392909216919091179055565b5f805f60029054906101000a90046001600160a01b03166001600160a01b03166375755a876040518163ffffffff1660e01b8152600401602060405180830381865afa1580156116d4573d5f803e3d5ffd5b505050506040513d601f19601f820116820180604052508101906116f89190615c1e565b90505f60015f9054906101000a90046001600160a01b03166001600160a01b03166375755a876040518163ffffffff1660e01b8152600401602060405180830381865afa15801561174b573d5f803e3d5ffd5b505050506040513d601f19601f8201168201806040525081019061176f9190615c1e565b905061177b8183615a76565b9250505090565b606b546001600160a01b0316611798818861355a565b82156117a7576117a78461430d565b6117af6152fc565b6117bc8188888888614342565b6117c882898386613a4e565b5050505050505050565b5f805f60029054906101000a90046001600160a01b03166001600160a01b0316630367b3026040518163ffffffff1660e01b8152600401602060405180830381865afa158015611824573d5f803e3d5ffd5b505050506040513d601f19601f820116820180604052508101906118489190615c1e565b90505f60015f9054906101000a90046001600160a01b03166001600160a01b0316630367b3026040518163ffffffff1660e01b8152600401602060405180830381865afa15801561174b573d5f803e3d5ffd5b6118a361437c565b6118ac816142b0565b50565b6118b76133c8565b6118bf6133ee565b6118c76153a0565b606b546001600160a01b039081168083525f5462010000900482166020840152606f5490911660408301526118fc908761355a565b6119058661378d565b61190e85613829565b6119178661346b565b5f86815260776020908152604080832080546001600160a01b0319166001600160a01b038a811691909117909155607690925290912054161561197b575f86815260766020526040812080546001600160a01b031916815560018101829055600201555b8051604051632ab4fd0160e21b8152600481018890526001600160a01b039091169063aad3f4049060240161014060405180830381865afa1580156119c2573d5f803e3d5ffd5b505050506040513d601f19601f820116820180604052508101906119e691906159c6565b6080820152805160405163309e565760e11b81526001600160a01b0387811660048301529091169063613cacae9060240161016060405180830381865afa158015611a33573d5f803e3d5ffd5b505050506040513d601f19601f82011682018060405250810190611a579190615b7e565b60c0820152611a646152fc565b608082018051604001518252805160600151602083015260c08301805160e090810151610120850152915190910151905160a00151611aa39190615a76565b60e082015260c0820151608080820151908401515191519091611ac591615a76565b611acf9190615a5f565b60c0820152608082015160208101519051611aec9190838661369d565b608080840180519290925260c0840151908101519151519051611b0f9190615a76565b611b199190615a5f565b60c08083019190915282810180516101000151610160840152519081015160808401515191519091611b4a91615a76565b611b549190615a5f565b61014082015260208201516040516371d4eb2160e01b81526001600160a01b03909116906371d4eb2190611b8e9084908a90600401615b07565b5f604051808303815f87803b158015611ba5575f80fd5b505af1158015611bb7573d5f803e3d5ffd5b50505050815f01516001600160a01b031663b3e16c306040518060e001604052808a8152602001856080015160200151815260200185608001515f01518152602001848152602001896001600160a01b031681526020018560c001516020015181526020018560c001515f01518152506040518263ffffffff1660e01b8152600401611c439190615cc3565b5f604051808303815f87803b158015611c5a575f80fd5b505af1158015611c6c573d5f803e3d5ffd5b5050505081604001516001600160a01b0316634cc82215886040518263ffffffff1660e01b8152600401611ca291815260200190565b5f604051808303815f87803b158015611cb9575f80fd5b505af1158015611ccb573d5f803e3d5ffd5b5050505081604001516001600160a01b03166336aa4c6a88888560c001516080015189896040518663ffffffff1660e01b8152600401611d0f959493929190615d25565b5f604051808303815f87803b158015611d26575f80fd5b505af1158015611d38573d5f803e3d5ffd5b5050505050505050505050565b5f611d4f86613403565b611d588961430d565b611d606153ee565b611d798d8d8d8d8b5f805f8e8e8e8e8d60400151614392565b816020018181525050606b5f9054906101000a90046001600160a01b03166001600160a01b031663b01417758e836020015184604001518b6040518563ffffffff1660e01b8152600401611dd09493929190615d51565b5f604051808303815f87803b158015611de7575f80fd5b505af1158015611df9573d5f803e3d5ffd5b5050606f54602084015160405163843aa0db60e01b81526004810191909152602481018b9052604481018d9052606481018c90526001600160a01b03909116925063843aa0db91506084015f604051808303815f87803b158015611e5b575f80fd5b505af1158015611e6d573d5f803e3d5ffd5b50505050602001519c9b505050505050505050505050565b611e8d6133c8565b611e956133ee565b611e9e33613829565b606b5460405163309e565760e11b81523360048201526001600160a01b03909116905f90829063613cacae9060240161016060405180830381865afa158015611ee9573d5f803e3d5ffd5b505050506040513d601f19601f82011682018060405250810190611f0d9190615b7e565b90508060c001518310611f33576040516333c8dc3560e21b815260040160405180910390fd5b60208101518151604051636506546960e11b815233600482015260248101929092526044820152606481018490526001600160a01b0383169063ca0ca8d2906084015f604051808303815f87803b158015611f8c575f80fd5b505af1158015611f9e573d5f803e3d5ffd5b50505050611faa6152fc565b60e08083015161012083015260a08301519082015260808201518251611fd09190615a5f565b60c08201526101008201516101608201528151611fee908590615a5f565b6101408201525f546040516371d4eb2160e01b8152620100009091046001600160a01b0316906371d4eb219061202a9084903390600401615b07565b5f604051808303815f87803b158015612041575f80fd5b505af11580156117c8573d5f803e3d5ffd5b606b546001600160a01b0316612069818561355a565b6120728361430d565b61207a6152fc565b6080810184905261208d82868386613a4e565b5050505050565b61209c6133c8565b6120a46133ee565b606b546001600160a01b03166120ba8185614169565b604051632ab4fd0160e21b8152600481018590525f906001600160a01b0383169063aad3f4049060240161014060405180830381865afa158015612100573d5f803e3d5ffd5b505050506040513d601f19601f8201168201806040525081019061212491906159c6565b9050612132815f01516147a6565b61213a6152fc565b604080830151825260608301516020808401919091525f888152607790915220546001600160a01b031661216c615351565b6001600160a01b03821661219f5760e0808501519084015260c084015184516121959190615a5f565b60c084015261227c565b60405163309e565760e11b81526001600160a01b03838116600483015286169063613cacae9060240161016060405180830381865afa1580156121e4573d5f803e3d5ffd5b505050506040513d601f19601f820116820180604052508101906122089190615b7e565b60e08082015161012086015260a08201519085015260808101516040860151825192935090916122389190615a76565b6122429190615a5f565b60c0808501919091526101008201516101608501528101516040850151825161226b9190615a76565b6122759190615a5f565b6101408401525b6020808501518551918301518351604051635ad3396160e11b81526001600160a01b038a169463b5a672c2946122bd948f9491938a92908c90600401615d86565b5f604051808303815f87803b1580156122d4575f80fd5b505af11580156122e6573d5f803e3d5ffd5b50505f546040516371d4eb2160e01b8152620100009091046001600160a01b031692506371d4eb2191506123209086908690600401615b07565b5f604051808303815f87803b158015612337575f80fd5b505af1158015612349573d5f803e3d5ffd5b5050505061235785896147b8565b801561236d57508351686c6b935b8bbd40000011155b156117c8576040516338116fa360e01b8152600481018990526001600160a01b038616906338116fa3906024015f604051808303815f87803b1580156123b1575f80fd5b505af11580156123c3573d5f803e3d5ffd5b505050506117c8888560c00151888a868660800151614842565b6123e56133c8565b6123ed6133ee565b6123f633614931565b612408856001600160801b0316613403565b61241a846001600160801b0316613403565b612436856001600160801b0316856001600160801b0316614977565b61245c836001600160801b0316866001600160801b0316866001600160801b0316614990565b61246f600a670de0b6b3a7640000615dd2565b6001600160801b0316826001600160801b031611156124a15760405163177c1b6360e31b815260040160405180910390fd5b60786001600160801b03821610156124cc57604051631cbb7eed60e01b815260040160405180910390fd5b604080516060810182526001600160801b0387811682528681166020808401918252858316848601908152335f818152607890935291869020945192518416600160801b029284169290921784559051600190930192909255606b54925163499b069f60e01b815260048101929092528581166024830152841660448201526001600160a01b039091169063499b069f906064015f604051808303815f87803b158015612577575f80fd5b505af1158015612589573d5f803e3d5ffd5b505050505050505050565b5f6125ad6125a860e0840160c08501615573565b613829565b6125ba826060013561430d565b6125c26153ee565b606b546001600160a01b031680825263613cacae6125e660e0860160c08701615573565b6040516001600160e01b031960e084901b1681526001600160a01b03909116600482015260240161016060405180830381865afa158015612629573d5f803e3d5ffd5b505050506040513d601f19601f8201168201806040525081019061264d9190615b7e565b6060820181815260e0918201516040840180516101200191909152815160a00151815190930192909252516101000151905161016001526127156126946020850185615573565b8460200135856040013586606001358560600151608001518860c00160208101906126bf9190615573565b6060880151805160c09091015160e08c01356126e36101208e016101008f01615573565b8d6101200160208101906126f79190615573565b8e61014001602081019061270b9190615573565b8d60400151614392565b602082015261272a60e0840160c08501615573565b6020828101515f908152607782526040902080546001600160a01b0319166001600160a01b03938416179055825190911690631ca2d7d99061276e90860186615573565b6020840151604085015161278860e0890160c08a01615573565b6060870151602081015190516040516001600160e01b031960e089901b1681526127ba96959493929190600401615df1565b5f604051808303815f87803b1580156127d1575f80fd5b505af11580156127e3573d5f803e3d5ffd5b5050606f5460208401516001600160a01b0390911692506336aa4c6a915061281160e0870160c08801615573565b84606001516080015187608001358860a001356040518663ffffffff1660e01b8152600401612844959493929190615d25565b5f604051808303815f87803b15801561285b575f80fd5b505af115801561286d573d5f803e3d5ffd5b505050506020015192915050565b5f54610100900460ff161580801561289957505f54600160ff909116105b806128b25750303b1580156128b257505f5460ff166001145b61291a5760405162461bcd60e51b815260206004820152602e60248201527f496e697469616c697a61626c653a20636f6e747261637420697320616c72656160448201526d191e481a5b9a5d1a585b1a5e995960921b60648201526084015b60405180910390fd5b5f805460ff19166001179055801561293b575f805461ff0019166101001790555b60405163875ad36b60e01b81526001600160a01b038316600482015273__$ae2cc70ccfeb34d40694f259897d33aadc$__9063875ad36b906024015f6040518083038186803b15801561298c575f80fd5b505af415801561299e573d5f803e3d5ffd5b505050508015610b49575f805461ff0019169055604051600181527f7f26b83ff96e1f2b6a682f133852f6798a09c465da95921460cefb38474024989060200160405180910390a15050565b6129f26133c8565b6129fa6133ee565b606b54612a10906001600160a01b03168a61355a565b612a198961378d565b612a2b876001600160801b0316613403565b612a3d866001600160801b0316613403565b612a59876001600160801b0316876001600160801b0316614977565b6040518060800160405280896001600160a01b03168152602001886001600160801b03168152602001876001600160801b031681526020018281525060765f8b81526020019081526020015f205f820151815f015f6101000a8154816001600160a01b0302191690836001600160a01b031602179055506020820151816001015f6101000a8154816001600160801b0302191690836001600160801b0316021790555060408201518160010160106101000a8154816001600160801b0302191690836001600160801b03160217905550606082015181600201559050505f6001600160a01b031660775f8b81526020019081526020015f205f9054906101000a90046001600160a01b03166001600160a01b031614612589576125898986868686612df1565b612b888261378d565b610b4982826149a9565b5f612b9c88614a0c565b9050612ba88186614a41565b606b5460405163309e565760e11b81526001600160a01b0383811660048301525f92169063613cacae9060240161016060405180830381865afa158015612bf1573d5f803e3d5ffd5b505050506040513d601f19601f82011682018060405250810190612c159190615b7e565b9050612c288982608001518a8a5f612df1565b61258989878787876118af565b612c3e8361378d565b612c49838383614a55565b505050565b606b546001600160a01b0316612c64818a614adc565b8415612c7357612c738661430d565b612c7b6152fc565b612c88818a8a8a8a614342565b612c94828b8386613a4e565b6040516338116fa360e01b8152600481018b90526001600160a01b038316906338116fa3906024015f604051808303815f87803b158015612cd3575f80fd5b505af1158015612ce5573d5f803e3d5ffd5b5050505f8b8152607760205260408120546001600160a01b031691508115612d7b5760405163309e565760e11b81526001600160a01b0383811660048301525f919086169063613cacae9060240161016060405180830381865afa158015612d4f573d5f803e3d5ffd5b505050506040513d601f19601f82011682018060405250810190612d739190615b7e565b608001519150505b604051635ef3b8bf60e01b8152600481018d90526114ff908d906001600160a01b03871690635ef3b8bf90602401602060405180830381865afa158015612dc4573d5f803e3d5ffd5b505050506040513d601f19601f82011682018060405250810190612de89190615c1e565b89898686614842565b612df96133c8565b612e016133ee565b612e0961540c565b606b546001600160a01b03908116808352606f549091166020830152612e2f908761355a565b612e388661378d565b612e4185613403565b612e4a86614a0c565b6001600160a01b039081166040838101919091525f888152607760209081529082902080546001600160a01b0319169055830151905163f476125960e01b81526004810189905291169063f4761259906024015f604051808303815f87803b158015612eb4575f80fd5b505af1158015612ec6573d5f803e3d5ffd5b505050602082015160405163843aa0db60e01b8152600481018990526024810188905260448101879052606481018690526001600160a01b03909116915063843aa0db906084015f604051808303815f87803b158015612f24575f80fd5b505af1158015612f36573d5f803e3d5ffd5b50508251604051632ab4fd0160e21b8152600481018a90526001600160a01b03909116925063aad3f404915060240161014060405180830381865afa158015612f81573d5f803e3d5ffd5b505050506040513d601f19601f82011682018060405250810190612fa591906159c6565b60608201528051604080830151905163309e565760e11b81526001600160a01b03918216600482015291169063613cacae9060240161016060405180830381865afa158015612ff6573d5f803e3d5ffd5b505050506040513d601f19601f8201168201806040525081019061301a9190615b7e565b60808201526060810151604081015190515f9161303691615c50565b6080830151516130469190615c50565b90506130506152fc565b60608084018051604001518352805190910151602083015260808401805160e090810151610120850152905160a00151908301525151613091908890615a5f565b60808085015101516130a39084615a5f565b6130ad9190615a76565b60c0820152608080840151015187148015906130df575062093a80836060015161012001516130dc9190615a76565b42105b15613103576060830151602081015190516130fc9190838761369d565b6060840151525b606083015151613114908890615a5f565b60808085015101516131269084615a5f565b6131309190615a76565b60c08083019190915260808401805161010001516101608401525101516131579083615a5f565b6101408201525f5460408481015190516371d4eb2160e01b8152620100009092046001600160a01b0316916371d4eb219161319791859190600401615b07565b5f604051808303815f87803b1580156131ae575f80fd5b505af11580156131c0573d5f803e3d5ffd5b50505050825f01516001600160a01b031663bf49e6498985606001516020015186606001515f01518588604001518960800151602001518a608001515f01518f6040518963ffffffff1660e01b8152600401613223989796959493929190615e39565b5f604051808303815f87803b15801561323a575f80fd5b505af11580156114ff573d5f803e3d5ffd5b60735460ff161561327057604051631de951a160e31b815260040160405180910390fd5b5f6132796117d2565b90505f613284611682565b60025460408051630fdb11cf60e01b815281519394505f9384936001600160a01b031692630fdb11cf9260048082019391829003018187875af11580156132cd573d5f803e3d5ffd5b505050506040513d601f19601f820116820180604052508101906132f19190615c63565b9150915080156133015750505050565b5f61330d858585614b03565b90506072548110613331576040516372f2224f60e01b815260040160405180910390fd5b613339614b34565b6040518181527f3ea78f7c2d896613dfa93eea56016064d98758df2a799e6eb38ce050c9f9c10e9060200160405180910390a15050505050565b606b5463d330fadd5f5260205f6020601c845afa905080613392575f80fd5b5f51638da5cb5b5f5260205f6020601c845afa915050806133b1575f80fd5b505f518033146118ac5763deadbeef5f526004601cfd5b60735460ff16156133ec57604051631de951a160e31b815260040160405180910390fd5b565b607954156133ec5763ec2a2fd25f526004601cfd5b60026134186064670de0b6b3a7640000615dd2565b6134229190615dd2565b81101561344257604051630d2693ab60e41b815260040160405180910390fd5b670de0b6b3a76400008111156118ac57604051631030bfe960e21b815260040160405180910390fd5b5f818152607760205260409020546001600160a01b0316156118ac57604051634742bbb360e01b815260040160405180910390fd5b6035546040516331a9108f60e11b8152600481018390525f916001600160a01b031690636352211e90602401602060405180830381865afa1580156134e7573d5f803e3d5ffd5b505050506040513d601f19601f8201168201806040525081019061350b9190615b63565b9050336001600160a01b0382161480159061353c57505f828152607660205260409020546001600160a01b03163314155b15610b49576040516334044c8d60e01b815260040160405180910390fd5b60405163e47bfaf160e01b8152600481018290525f906001600160a01b0384169063e47bfaf190602401602060405180830381865afa15801561359f573d5f803e3d5ffd5b505050506040513d601f19601f820116820180604052508101906135c39190615e8f565b905060018160048111156135d9576135d9615ead565b14612c495760405163f1669c3d60e01b815260040160405180910390fd5b5f83815260766020908152604091829020825160808101845281546001600160a01b031680825260018301546001600160801b0380821695840195909552600160801b900490931693810193909352600201546060830152339003610fa55761367b8282602001516001600160801b031683604001516001600160801b0316614990565b610fa5838260600151614b77565b808203610b4957638a00f9245f526004601cfd5b5f806136a7613942565b5f80546040516385fe37a360e01b81529293509091620100009091046001600160a01b0316906385fe37a3906136e1908890600401615c0f565b602060405180830381865afa1580156136fc573d5f803e3d5ffd5b505050506040513d601f19601f820116820180604052508101906137209190615c1e565b905061372c868261397c565b610100860181905261373e908561399c565b61010085015161374e9087615a76565b95505f61375c888885614b03565b905061376781614b8e565b5f61377287856139b1565b905061377d81613a37565b879450505050505b949350505050565b6035546040516331a9108f60e11b8152600481018390526001600160a01b0390911690636352211e90602401602060405180830381865afa1580156137d4573d5f803e3d5ffd5b505050506040513d601f19601f820116820180604052508101906137f89190615b63565b6001600160a01b0316336001600160a01b0316146118ac57604051631963d1e760e31b815260040160405180910390fd5b6001600160a01b0381165f90815260786020526040812054600160801b90046001600160801b031690036118ac5760405163de5a928160e01b815260040160405180910390fd5b6001600160a01b0382165f90815260786020908152604091829020825160608101845281546001600160801b03808216808452600160801b9092041693820184905260019092015493810193909352612c4991849190614990565b6001600160a01b0382165f90815260786020908152604091829020825160608101845281546001600160801b038082168352600160801b909104169281019290925260010154918101829052906139229083615a76565b421015612c495760405163dce1ae8b60e01b815260040160405180910390fd5b5f630fdb11cf5f5260405f6020601c5f6002545af180613960575f80fd5b50602051156139765763236564665f526004601cfd5b505f5190565b5f61399361398a8385615a5f565b62093a80614ba5565b90505b92915050565b80821115610b4957632337edc75f526004601cfd5b5f806139bb6117d2565b90508360400151816139cd9190615a76565b90508360600151816139df9190615c50565b90505f6139ea611682565b90508460800151816139fc9190615a76565b905084610100015181613a0f9190615a76565b90508460a0015181613a219190615c50565b9050613a2e828286614b03565b95945050505050565b6071548110156118ac5763c855c3b35f526004601cfd5b613a566133c8565b613a5e6133ee565b613a6661544d565b5f546001600160a01b036201000090910481168252606e54166020820152613a8c613942565b60608201819052607154613aa09190614bd2565b15156080820152613ab18585614169565b6035546040516331a9108f60e11b8152600481018690525f916001600160a01b031690636352211e90602401602060405180830381865afa158015613af8573d5f803e3d5ffd5b505050506040513d601f19601f82011682018060405250810190613b1c9190615b63565b60608501519091508190151580613b3657505f8560800151115b15613b4857613b4586836140de565b90505b5f85604001511180613b5d57505f8560a00151115b15613b6c57613b6c8683614be7565b604051632ab4fd0160e21b8152600481018790526001600160a01b0388169063aad3f4049060240161014060405180830381865afa158015613bb0573d5f803e3d5ffd5b505050506040513d601f19601f82011682018060405250810190613bd491906159c6565b604084015260a085015115613c46575f686c6b935b8bbd40000084604001515f015111613c01575f613c1b565b604084015151613c1b90686c6b935b8bbd40000090615c50565b9050808660a001511115613c315760a086018190525b613c448460200151338860a00151614226565b505b613c4f85614c4d565b606085015115613c6f57613c6f8360400151602001518660600151614c9b565b84606001518560400151846040015160200151613c8c9190615a76565b613c969190615c50565b60e084015260a08501516080860151604085015151613cb59190615a76565b613cbf9190615c50565b60c08401525f868152607760205260409020546001600160a01b0316801515613ce6615351565b5f8215613df85760405163309e565760e11b81526001600160a01b0385811660048301528c169063613cacae9060240161016060405180830381865afa158015613d32573d5f803e3d5ffd5b505050506040513d601f19601f82011682018060405250810190613d569190615b7e565b91508860a001518960800151886040015160400151845f0151613d799190615a76565b613d839190615a76565b613d8d9190615c50565b60408089018051909101518b52516060015160208b015260e0808401516101208c015260a0840151908b01526080830151909150613dcb9082615a5f565b60c0808b01919091526101008301516101608b0152820151613ded9082615a5f565b6101408a0152613e37565b60408088018051909101518a5280516060015160208b0152805160e090810151908b01525160c09081015190880151613e319190615a5f565b60c08a01525b608089015115613f545786516040516385fe37a360e01b81525f916001600160a01b0316906385fe37a390613e70908d90600401615c0f565b602060405180830381865afa158015613e8b573d5f803e3d5ffd5b505050506040513d601f19601f82011682018060405250810190613eaf9190615c1e565b9050613ebf8a608001518261397c565b6101008b01819052613ed1908a61399c565b8961010001518860c001818151613ee89190615a76565b9052508315613f34576101008a0151613f019083615a76565b9150826080015182613f139190615a5f565b60c0808c0191909152830151613f299083615a5f565b6101408b0152613f52565b876040015160c001518860c00151613f4c9190615a5f565b60c08b01525b505b613f618760c00151614cb0565b613f788760e001518860c001518960600151614b03565b60a0880152613f878988614cce565b8215614006578a6001600160a01b0316631cf740758b8960e001518a60c001518d898860200151895f01516040518863ffffffff1660e01b8152600401613fd49796959493929190615ec1565b5f604051808303815f87803b158015613feb575f80fd5b505af1158015613ffd573d5f803e3d5ffd5b5050505061406d565b60e087015160c08801516040516203af7d60eb1b81526001600160a01b038e1692631d7be8009261403f928f9291908f90600401615f0e565b5f604051808303815f87803b158015614056575f80fd5b505af1158015614068573d5f803e3d5ffd5b505050505b86516040516371d4eb2160e01b81526001600160a01b03909116906371d4eb219061409e908c908890600401615b07565b5f604051808303815f87803b1580156140b5575f80fd5b505af11580156140c7573d5f803e3d5ffd5b50505050611d38858a89602001518a5f0151614d1b565b5f82815260376020526040812080546001909101546001600160a01b0391821691908116908416331480159061411d5750336001600160a01b03831614155b1561413b576040516310bb5c9d60e31b815260040160405180910390fd5b6001600160a01b038116158061415a5750336001600160a01b03831614155b15613785578392505050613996565b60405163e47bfaf160e01b8152600481018290525f906001600160a01b0384169063e47bfaf190602401602060405180830381865afa1580156141ae573d5f803e3d5ffd5b505050506040513d601f19601f820116820180604052508101906141d29190615e8f565b905060018160048111156141e8576141e8615ead565b141580156142085750600481600481111561420557614205615ead565b14155b15612c495760405163019dc6e560e11b815260040160405180910390fd5b6040516370a0823160e01b81526001600160a01b0383811660048301528291908516906370a0823190602401602060405180830381865afa15801561426d573d5f803e3d5ffd5b505050506040513d601f19601f820116820180604052508101906142919190615c1e565b1015612c495760405163120d107760e11b815260040160405180910390fd5b5f81815260766020908152604080832080546001600160a01b031990811682556001820185905560029091018490556077909252909120805490911690556118ac81614e5d565b60025433146133ec57638d3c07a85f526004601cfd5b60755481614319611682565b6143239190615a76565b11156118ac57604051630de8b40d60e21b815260040160405180910390fd5b8215614354576040850184905261435c565b606085018490525b801561436e576080850182905261208d565b60a085018290525050505050565b606b5433146133ec5763e2ab44a85f526004601cfd5b5f61439b6133c8565b6143a36133ee565b61440c6040518061014001604052805f6001600160a01b031681526020015f6001600160a01b031681526020015f6001600160a01b031681526020015f81526020015f81526020015f81526020015f81526020015f81526020015f81526020015f151581525090565b606b546001600160a01b0390811682525f5462010000900481166020830152606e5416604082015261443c613942565b8160800181815250508e8e60405160200161446c9291906001600160a01b03929092168252602082015260400190565b60408051601f19818403018152919052805160209091012060608201819052815161449691614f03565b604083018d9052608083018c90528a6144af8d8b615a76565b6144b99190615a5f565b60c084015260208101516040516385fe37a360e01b81526001600160a01b03909116906385fe37a3906144f0908690600401615c0f565b602060405180830381865afa15801561450b573d5f803e3d5ffd5b505050506040513d601f19601f8201168201806040525081019061452f9190615c1e565b60a0820181905260808401516145449161397c565b6101008401819052614556908861399c565b826101000151836080015161456b9190615a76565b60c0820181905261457b90614cb0565b6001600160a01b038a166145a3578a8160c001516145999190615a5f565b60c08401526145e7565b8a8160c001518a6145b49190615a76565b6145be9190615a5f565b60c08085019190915281015188906145d6908b615a76565b6145e09190615a5f565b6101408401525b6145fa8d8260c001518360800151614b03565b60e0820181905261460a90614b8e565b6146188382608001516139b1565b610100820181905261462990613a37565b6146378160600151876149a9565b61464681606001518686614a55565b80602001516001600160a01b03166371d4eb21848c6040518363ffffffff1660e01b8152600401614678929190615b07565b5f604051808303815f87803b15801561468f575f80fd5b505af11580156146a1573d5f803e3d5ffd5b505050506146b381602001518e614f9f565b60408082015190516340c10f1960e01b8152336004820152602481018e90526001600160a01b03909116906340c10f19906044015f604051808303815f87803b1580156146fe575f80fd5b505af1158015614710573d5f803e3d5ffd5b5050607054606c546040516323b872dd60e01b81523360048201526001600160a01b0391821660248201525f6044820152911692506323b872dd91506064016020604051808303815f875af115801561476b573d5f803e3d5ffd5b505050506040513d601f19601f8201168201806040525081019061478f9190615c35565b50606001519e9d5050505050505050505050505050565b806118ac576316f6fdf85f526004601cfd5b60405163e47bfaf160e01b8152600481018290525f9081906001600160a01b0385169063e47bfaf190602401602060405180830381865afa1580156147ff573d5f803e3d5ffd5b505050506040513d601f19601f820116820180604052508101906148239190615e8f565b9050600481600481111561483957614839615ead565b14949350505050565b6001600160a01b0382166148c357606f5460405163843aa0db60e01b8152600481018890526024810187905260448101869052606481018590526001600160a01b039091169063843aa0db906084015f604051808303815f87803b1580156148a8575f80fd5b505af11580156148ba573d5f803e3d5ffd5b50505050614929565b606f54604051631b55263560e11b81526001600160a01b03909116906336aa4c6a906148fb908990869086908a908a90600401615d25565b5f604051808303815f87803b158015614912575f80fd5b505af1158015614924573d5f803e3d5ffd5b505050505b505050505050565b6001600160a01b0381165f90815260786020526040902054600160801b90046001600160801b0316156118ac57604051632a16d50160e01b815260040160405180910390fd5b8082148183111715610b4957632a2b2ad15f526004601cfd5b8083118383111715612c4957639736ee755f526004601cfd5b5f8281526036602090815260409182902080546001600160a01b0319166001600160a01b038516908117909155915191825283917f3942babd464ceb1c7d319f75245a8cd41334592b45507f072e7020e63c22a8dc910160405180910390a25050565b5f818152607760205260408120546001600160a01b031680613996576040516393f3f3c160e01b815260040160405180910390fd5b808203610b4957631c56f5035f526004601cfd5b614a5f8282615008565b5f8381526037602090815260409182902080546001600160a01b03199081166001600160a01b0387811691821784556001909301805490921692861692831790915583519081529182015284917f649442545e0f313a6d8087b19bc47bd2bd9b63f79d23a773446e00d2ea01d169910160405180910390a2505050565b614ae682826147b8565b610b495760405163067c71a160e41b815260040160405180910390fd5b5f8215614b29575f83614b168487615a5f565b614b209190615dd2565b9150614b2d9050565b505f195b9392505050565b631bfa0d7b5f5260205f6020601c5f805460101c5af180614b53575f80fd5b600160735563fc0e74d15f5260205f6020601c5f606b545af19050806118ac575f80fd5b808201421015610b495763851008835f526004601cfd5b6074548110156118ac57634d4556d85f526004601cfd5b5f670de0b6b3a76400006301e13380614bbe8486615a5f565b614bc89190615dd2565b6139939190615dd2565b5f80614bdd84615045565b9092119392505050565b5f828152603660205260409020546001600160a01b039081169082163314801590614c1a57506001600160a01b03811615155b8015614c2f5750336001600160a01b03821614155b15612c4957604051636522e96960e01b815260040160405180910390fd5b6040810151158015614c6157506060810151155b8015614c6f57506080810151155b8015614c7d575060a0810151155b156118ac576040516356515c5360e01b815260040160405180910390fd5b81811115610b495763b30a1bc95f526004601cfd5b686c6b935b8bbd4000008110156118ac5763f1e419135f526004601cfd5b614cdb8160a00151614b8e565b5f614cea8383606001516139b1565b9050816080015115614d1257614d04836080015182615067565b612c49838360600151615082565b612c4981613a37565b608083015115614d8e5760808301516040516340c10f1960e01b81526001600160a01b0386811660048301526024820192909252908316906340c10f19906044015f604051808303815f87803b158015614d73575f80fd5b505af1158015614d85573d5f803e3d5ffd5b50505050614dfa565b60a083015115614dfa5760a0830151604051632770a7eb60e21b815233600482015260248101919091526001600160a01b03831690639dc29fac906044015f604051808303815f87803b158015614de3575f80fd5b505af1158015614df5573d5f803e3d5ffd5b505050505b604083015115614e1757614e12818460400151614f9f565b610fa5565b606083015115610fa5576060830151604051634fa7288f60e11b81526001600160a01b038681166004830152602482019290925290821690639f4e511e9060440161202a565b5f81815260366020908152604080832080546001600160a01b031990811690915560378352818420805482168155600101805490911690555191825282917f3942babd464ceb1c7d319f75245a8cd41334592b45507f072e7020e63c22a8dc910160405180910390a2604080515f808252602082015282917f649442545e0f313a6d8087b19bc47bd2bd9b63f79d23a773446e00d2ea01d169910160405180910390a250565b60405163e47bfaf160e01b8152600481018290525f906001600160a01b0384169063e47bfaf190602401602060405180830381865afa158015614f48573d5f803e3d5ffd5b505050506040513d601f19601f82011682018060405250810190614f6c9190615e8f565b90505f816004811115614f8157614f81615ead565b14612c49576040516376ac6c0d60e11b815260040160405180910390fd5b606a54614fb7906001600160a01b03163384846150c9565b604051632bcbcbcb60e01b8152600481018290526001600160a01b03831690632bcbcbcb906024015f604051808303815f87803b158015614ff6575f80fd5b505af1158015614929573d5f803e3d5ffd5b6001600160a01b03821615801561502757506001600160a01b03811615155b15610b4957604051632235921760e01b815260040160405180910390fd5b5f8061504f6117d2565b90505f61505a611682565b9050613785828286614b03565b60715481105f83111615610b495763c855c3b35f526004601cfd5b8082606001516150929190615a5f565b670de0b6b3a76400008360a001516150aa9190615a5f565b1015610b495760405163d676956360e01b815260040160405180910390fd5b604080516001600160a01b038581166024830152848116604483015260648083018590528351808403909101815260849092018352602080830180516001600160e01b03166323b872dd60e01b17905283518085019094528084527f5361666545524332303a206c6f772d6c6576656c2063616c6c206661696c656490840152610fa5928792915f916151609185169084906151df565b905080515f14806151805750808060200190518101906151809190615c35565b612c495760405162461bcd60e51b815260206004820152602a60248201527f5361666545524332303a204552433230206f7065726174696f6e20646964206e6044820152691bdd081cdd58d8d9595960b21b6064820152608401612911565b606061378584845f85855f80866001600160a01b031685876040516152049190615f53565b5f6040518083038185875af1925050503d805f811461523e576040519150601f19603f3d011682016040523d82523d5f602084013e615243565b606091505b50915091506152548783838761525f565b979650505050505050565b606083156152cd5782515f036152c6576001600160a01b0385163b6152c65760405162461bcd60e51b815260206004820152601d60248201527f416464726573733a2063616c6c20746f206e6f6e2d636f6e74726163740000006044820152606401612911565b5081613785565b61378583838151156152e25781518083602001fd5b8060405162461bcd60e51b81526004016129119190615f6e565b6040518061018001604052805f81526020015f81526020015f81526020015f81526020015f81526020015f81526020015f81526020015f81526020015f81526020015f81526020015f81526020015f81525090565b6040518061016001604052805f81526020015f81526020015f81526020015f81526020015f81526020015f81526020015f81526020015f81526020015f81526020015f81526020015f81525090565b6040805160e0810182525f808252602082018190529181018290526060810191909152608081016153cf61549a565b81526020016153dc615351565b81526020016153e9615351565b905290565b604080516080810182525f80825260208201529081016153dc6152fc565b6040805160c0810182525f80825260208201819052918101919091526060810161543461549a565b8152602001615441615351565b81526020015f81525090565b60408051610120810182525f808252602082015290810161546c61549a565b81526020015f81526020015f151581526020015f81526020015f81526020015f81526020015f151581525090565b6040518061014001604052805f81526020015f81526020015f81526020015f81526020015f81526020015f81526020015f81526020015f81526020015f81526020015f81525090565b5f602082840312156154f3575f80fd5b5035919050565b5f805f805f60a0868803121561550e575f80fd5b505083359560208501359550604085013594606081013594506080013592509050565b6001600160a01b03811681146118ac575f80fd5b5f8060408385031215615556575f80fd5b82359150602083013561556881615531565b809150509250929050565b5f60208284031215615583575f80fd5b8135614b2d81615531565b80356001600160801b03811681146155a4575f80fd5b919050565b5f805f80608085870312156155bc575f80fd5b6155c58561558e565b966020860135965060408601359560600135945092505050565b5f80604083850312156155f0575f80fd5b50508035926020909101359150565b80151581146118ac575f80fd5b5f805f805f8060c08789031215615621575f80fd5b8635955060208701359450604087013561563a816155ff565b9350606087013592506080870135615651816155ff565b8092505060a087013590509295509295509295565b5f805f805f60a0868803121561567a575f80fd5b85359450602086013561568c81615531565b94979496505050506040830135926060810135926080909101359150565b5f805f805f805f805f805f6101608c8e0312156156c5575f80fd5b8b356156d081615531565b9a5060208c0135995060408c0135985060608c0135975060808c0135965060a08c0135955060c08c0135945060e08c013593506101008c013561571281615531565b92506101208c013561572381615531565b91506101408c013561573481615531565b809150509295989b509295989b9093969950565b5f805f6060848603121561575a575f80fd5b505081359360208301359350604090920135919050565b5f805f805f60a08688031215615785575f80fd5b61578e8661558e565b945061579c6020870161558e565b93506157aa6040870161558e565b92506157b86060870161558e565b91506157c66080870161558e565b90509295509295909350565b5f61016082840312156157e3575f80fd5b50919050565b5f805f805f805f805f6101208a8c031215615802575f80fd5b8935985060208a013561581481615531565b975061582260408b0161558e565b965061583060608b0161558e565b989b979a50959860808101359760a0820135975060c0820135965060e08201359550610100909101359350915050565b5f805f805f805f60e0888a031215615876575f80fd5b873596506020880135955060408801359450606088013561589681615531565b9699959850939660808101359560a0820135955060c0909101359350915050565b5f805f606084860312156158c9575f80fd5b8335925060208401356158db81615531565b915060408401356158eb81615531565b809150509250925092565b5f805f805f805f80610100898b03121561590e575f80fd5b88359750602089013596506040890135615927816155ff565b955060608901359450608089013561593e816155ff565b979a969950949793969560a0850135955060c08501359460e001359350915050565b604051610140810167ffffffffffffffff8111828210171561599057634e487b7160e01b5f52604160045260245ffd5b60405290565b604051610160810167ffffffffffffffff8111828210171561599057634e487b7160e01b5f52604160045260245ffd5b5f61014082840312156159d7575f80fd5b6159df615960565b825181526020830151602082015260408301516040820152606083015160608201526080830151608082015260a083015160a082015260c083015160c082015260e083015160e08201526101008084015181830152506101208084015181830152508091505092915050565b634e487b7160e01b5f52601160045260245ffd5b808202811582820484141761399657613996615a4b565b8082018082111561399657613996615a4b565b805182526020810151602083015260408101516040830152606081015160608301526080810151608083015260a081015160a083015260c081015160c083015260e081015160e08301526101008082015181840152506101208082015181840152506101408082015181840152506101608082015181840152505050565b6101a08101615b168285615a89565b6001600160a01b03929092166101809190910152919050565b5f61020082019050868252856020830152846040830152836060830152615b596080830184615a89565b9695505050505050565b5f60208284031215615b73575f80fd5b8151614b2d81615531565b5f6101608284031215615b8f575f80fd5b615b97615996565b825181526020830151602082015260408301516040820152606083015160608201526080830151608082015260a083015160a082015260c083015160c082015260e083015160e08201526101008084015181830152506101208084015181830152506101408084015181830152508091505092915050565b61018081016139968284615a89565b5f60208284031215615c2e575f80fd5b5051919050565b5f60208284031215615c45575f80fd5b8151614b2d816155ff565b8181038181111561399657613996615a4b565b5f8060408385031215615c74575f80fd5b825191506020830151615568816155ff565b8581526102008101615c9b6020830187615a89565b6001600160a01b03949094166101a08201526101c08101929092526101e09091015292915050565b5f610240820190508251825260208301516020830152604083015160408301526060830151615cf56060840182615a89565b5060808301516001600160a01b03166101e083015260a083015161020083015260c0909201516102209091015290565b9485526001600160a01b0393909316602085015260408401919091526060830152608082015260a00190565b6001600160a01b0385168152602081018490526101e08101615d766040830185615a89565b826101c083015295945050505050565b87815260208101879052604081018690526001600160a01b03851660608201526080810184905260a081018390526102408101615dc660c0830184615a89565b98975050505050505050565b5f82615dec57634e487b7160e01b5f52601260045260245ffd5b500490565b6001600160a01b03878116825260208201879052610220820190615e186040840188615a89565b949094166101c08201526101e0810192909252610200909101529392505050565b88815260208101889052604081018790526102608101615e5c6060830188615a89565b6001600160a01b03959095166101e082015261020081019390935261022083019190915261024090910152949350505050565b5f60208284031215615e9f575f80fd5b815160058110614b2d575f80fd5b634e487b7160e01b5f52602160045260245ffd5b87815260208101879052604081018690526102408101615ee46060830187615a89565b6001600160a01b03949094166101e082015261020081019290925261022090910152949350505050565b84815260208101849052604081018390526101e08101613a2e6060830184615a89565b5f5b83811015615f4b578181015183820152602001615f33565b50505f910152565b5f8251615f64818460208701615f31565b9190910192915050565b602081525f8251806020840152615f8c816040850160208701615f31565b601f01601f1916919091016040019291505056fea26469706673582212209c774ad754252501904828a7812ec62324f591eb0594246aadc9241cdb9ed14b64736f6c63430008180033","linkReferences":{"src/Libraries/BorrowerOperationsInit.sol":{"BorrowerOperationsInit":[{"start":10842,"length":20}]}}},"methodIdentifiers":{"CCR()":"5733d58f","MCR()":"794e5724","SCR()":"58d5a961","activePool()":"7f7dde4a","addColl(uint256,uint256)":"59f54f40","addManagerOf(uint256)":"70986fe1","adjustTrove(uint256,uint256,bool,uint256,bool,uint256)":"84e5253c","adjustTroveInterestRate(uint256,uint256,uint256,uint256,uint256)":"26f4e252","adjustZombieTrove(uint256,uint256,bool,uint256,bool,uint256,uint256,uint256)":"dcfbd293","adminShutdown()":"1c143ea7","applyPendingDebt(uint256,uint256,uint256)":"ba5f47a6","checkBatchManagerExists(address)":"85c44a1a","claimCollateral()":"6f0b0c1c","closeTrove(uint256)":"5aa6d461","getEntireSystemColl()":"887105d3","getEntireSystemDebt()":"795d26c3","getInterestBatchManager(address)":"4ed1bd5d","getInterestIndividualDelegateOf(uint256)":"4c1306b3","hasBeenShutDown()":"06ff8dfb","initialize(address)":"c4d66de8","interestBatchManagerOf(uint256)":"a0df5cd5","isTemporaryShutdown()":"452bb0e8","lowerBatchManagementFee(uint256)":"ad9be127","maxDebtCap()":"5cc2fbb5","onLiquidateTrove(uint256)":"8fef27ab","openTrove(address,uint256,uint256,uint256,uint256,uint256,uint256,uint256,address,address,address)":"9cb90ba6","openTroveAndJoinInterestBatchManager((address,uint256,uint256,uint256,uint256,uint256,address,uint256,address,address,address))":"c440844f","registerBatchManager(uint128,uint128,uint128,uint128,uint128)":"bcb266c0","removeFromBatch(uint256,uint256,uint256,uint256,uint256)":"f9ef19ca","removeInterestIndividualDelegate(uint256)":"53eb2885","removeManagerReceiverOf(uint256)":"0e01617c","repayfeUSD(uint256,uint256)":"5fc7fcf4","resumeFromShutdown()":"5dcd0113","setAddManager(uint256,address)":"d3695fa5","setBatchManagerAnnualInterestRate(uint128,uint256,uint256,uint256)":"570fb750","setCCR(uint256)":"4139ad60","setInterestBatchManager(uint256,address,uint256,uint256,uint256)":"9537f001","setInterestIndividualDelegate(uint256,address,uint128,uint128,uint256,uint256,uint256,uint256,uint256)":"c6ac2465","setMCR(uint256)":"385a128f","setMaxDebtCap(uint256)":"53feb0b1","setPriceFeed(address)":"724e78da","setRemoveManager(uint256,address)":"292a3f0b","setRemoveManagerWithReceiver(uint256,address,address)":"d6491eaf","shutdown()":"fc0e74d1","shutdownFromOracleFailure(address)":"5b7ca6dc","switchBatchManager(uint256,uint256,uint256,address,uint256,uint256,uint256)":"d5479cd4","withdrawColl(uint256,uint256)":"580de360","withdrawfeUSD(uint256,uint256,uint256)":"b10b6605"},"id":79}