{"abi":[{"type":"function","name":"delegations","inputs":[{"name":"user","type":"address","internalType":"address"}],"outputs":[{"name":"","type":"tuple[]","internalType":"struct L1Read.Delegation[]","components":[{"name":"validator","type":"address","internalType":"address"},{"name":"amount","type":"uint64","internalType":"uint64"},{"name":"lockedUntilTimestamp","type":"uint64","internalType":"uint64"}]}],"stateMutability":"view"},{"type":"function","name":"delegatorSummary","inputs":[{"name":"user","type":"address","internalType":"address"}],"outputs":[{"name":"","type":"tuple","internalType":"struct L1Read.DelegatorSummary","components":[{"name":"delegated","type":"uint64","internalType":"uint64"},{"name":"undelegated","type":"uint64","internalType":"uint64"},{"name":"totalPendingWithdrawal","type":"uint64","internalType":"uint64"},{"name":"nPendingWithdrawals","type":"uint64","internalType":"uint64"}]}],"stateMutability":"view"},{"type":"function","name":"l1BlockNumber","inputs":[],"outputs":[{"name":"","type":"uint64","internalType":"uint64"}],"stateMutability":"view"},{"type":"function","name":"markPx","inputs":[{"name":"index","type":"uint16","internalType":"uint16"}],"outputs":[{"name":"","type":"uint64","internalType":"uint64"}],"stateMutability":"view"},{"type":"function","name":"oraclePx","inputs":[{"name":"index","type":"uint16","internalType":"uint16"}],"outputs":[{"name":"","type":"uint64","internalType":"uint64"}],"stateMutability":"view"},{"type":"function","name":"position","inputs":[{"name":"user","type":"address","internalType":"address"},{"name":"perp","type":"uint16","internalType":"uint16"}],"outputs":[{"name":"","type":"tuple","internalType":"struct L1Read.Position","components":[{"name":"szi","type":"int64","internalType":"int64"},{"name":"leverage","type":"uint32","internalType":"uint32"},{"name":"entryNtl","type":"uint64","internalType":"uint64"}]}],"stateMutability":"view"},{"type":"function","name":"spotBalance","inputs":[{"name":"user","type":"address","internalType":"address"},{"name":"token","type":"uint64","internalType":"uint64"}],"outputs":[{"name":"","type":"tuple","internalType":"struct L1Read.SpotBalance","components":[{"name":"total","type":"uint64","internalType":"uint64"},{"name":"hold","type":"uint64","internalType":"uint64"},{"name":"entryNtl","type":"uint64","internalType":"uint64"}]}],"stateMutability":"view"},{"type":"function","name":"spotPx","inputs":[{"name":"index","type":"uint32","internalType":"uint32"}],"outputs":[{"name":"","type":"uint64","internalType":"uint64"}],"stateMutability":"view"},{"type":"function","name":"userVaultEquity","inputs":[{"name":"user","type":"address","internalType":"address"},{"name":"vault","type":"address","internalType":"address"}],"outputs":[{"name":"","type":"tuple","internalType":"struct L1Read.UserVaultEquity","components":[{"name":"equity","type":"uint64","internalType":"uint64"}]}],"stateMutability":"view"},{"type":"function","name":"withdrawable","inputs":[{"name":"user","type":"address","internalType":"address"}],"outputs":[{"name":"","type":"tuple","internalType":"struct L1Read.Withdrawable","components":[{"name":"withdrawable","type":"uint64","internalType":"uint64"}]}],"stateMutability":"view"}],"bytecode":{"object":"0x608060405234801561000f575f80fd5b506110828061001d5f395ff3fe608060405234801561000f575f80fd5b506004361061009b575f3560e01c806390702759116100635780639070275914610187578063a69610d11461019a578063bffe3486146101df578063ce513b6f146101ff578063ee1b5af11461022a575f80fd5b8063298c90051461009f57806329ebb2ba146100c457806337f980a5146100d75780633e37cfff1461012d57806389cf7c8914610140575b5f80fd5b6100a761023d565b6040516001600160401b0390911681526020015b60405180910390f35b6100a76100d2366004610ba8565b61031c565b6100ea6100e5366004610bdf565b6103fc565b6040516100bb919081516001600160401b039081168252602080840151821690830152604080840151821690830152606092830151169181019190915260800190565b6100a761013b366004610ba8565b61050b565b61015361014e366004610bfa565b6105cf565b60408051825160070b815260208084015163ffffffff1690820152918101516001600160401b0316908201526060016100bb565b6100a7610195366004610c3e565b6106dc565b6101ad6101a8366004610c6d565b6107a2565b6040805182516001600160401b03908116825260208085015182169083015292820151909216908201526060016100bb565b6101f26101ed366004610bdf565b6108b6565b6040516100bb9190610ca4565b61021261020d366004610bdf565b61099e565b60405190516001600160401b031681526020016100bb565b610212610238366004610d12565b610a93565b604080515f80825260208201928390529182916060916108099161026091610d3e565b5f60405180830381855afa9150503d805f8114610298576040519150601f19603f3d011682016040523d82523d5f602084013e61029d565b606091505b509092509050816103015760405162461bcd60e51b8152602060048201526024808201527f4c31426c6f636b4e756d62657220707265636f6d70696c652063616c6c2066616044820152631a5b195960e21b60648201526084015b60405180910390fd5b808060200190518101906103159190610d6a565b9250505090565b6040805161ffff831660208201525f918291606091610807910160408051601f198184030181529082905261035091610d3e565b5f60405180830381855afa9150503d805f8114610388576040519150601f19603f3d011682016040523d82523d5f602084013e61038d565b606091505b509092509050816103e05760405162461bcd60e51b815260206004820152601f60248201527f4f7261636c65507820707265636f6d70696c652063616c6c206661696c65640060448201526064016102f8565b808060200190518101906103f49190610d6a565b949350505050565b604080516080810182525f808252602082018190529181018290526060810191909152604080516001600160a01b03841660208201525f91606091610805910160408051601f198184030181529082905261045691610d3e565b5f60405180830381855afa9150503d805f811461048e576040519150601f19603f3d011682016040523d82523d5f602084013e610493565b606091505b509092509050816104f75760405162461bcd60e51b815260206004820152602860248201527f44656c656761746f727953756d6d61727920707265636f6d70696c652063616c6044820152671b0819985a5b195960c21b60648201526084016102f8565b808060200190518101906103f49190610df1565b6040805161ffff831660208201525f918291606091610806910160408051601f198184030181529082905261053f91610d3e565b5f60405180830381855afa9150503d805f8114610577576040519150601f19603f3d011682016040523d82523d5f602084013e61057c565b606091505b509092509050816103e05760405162461bcd60e51b815260206004820152601d60248201527f4d61726b507820707265636f6d70696c652063616c6c206661696c656400000060448201526064016102f8565b604080516060810182525f8082526020820181905291810191909152604080516001600160a01b038516602082015261ffff8416918101919091525f9060609061080090820160408051601f198184030181529082905261062f91610d3e565b5f60405180830381855afa9150503d805f8114610667576040519150601f19603f3d011682016040523d82523d5f602084013e61066c565b606091505b509092509050816106bf5760405162461bcd60e51b815260206004820152601f60248201527f506f736974696f6e20707265636f6d70696c652063616c6c206661696c65640060448201526064016102f8565b808060200190518101906106d39190610e73565b95945050505050565b6040805163ffffffff831660208201525f918291606091610808910160408051601f198184030181529082905261071291610d3e565b5f60405180830381855afa9150503d805f811461074a576040519150601f19603f3d011682016040523d82523d5f602084013e61074f565b606091505b509092509050816103e05760405162461bcd60e51b815260206004820152601d60248201527f53706f74507820707265636f6d70696c652063616c6c206661696c656400000060448201526064016102f8565b604080516060810182525f8082526020820181905291810191909152604080516001600160a01b03851660208201526001600160401b038416918101919091525f9060609061080190820160408051601f198184030181529082905261080791610d3e565b5f60405180830381855afa9150503d805f811461083f576040519150601f19603f3d011682016040523d82523d5f602084013e610844565b606091505b509092509050816108a25760405162461bcd60e51b815260206004820152602260248201527f53706f7442616c616e636520707265636f6d70696c652063616c6c206661696c604482015261195960f21b60648201526084016102f8565b808060200190518101906106d39190610eca565b604080516001600160a01b03831660208201526060915f918391610804910160408051601f19818403018152908290526108ef91610d3e565b5f60405180830381855afa9150503d805f8114610927576040519150601f19603f3d011682016040523d82523d5f602084013e61092c565b606091505b5090925090508161098a5760405162461bcd60e51b815260206004820152602260248201527f44656c65676174696f6e7320707265636f6d70696c652063616c6c206661696c604482015261195960f21b60648201526084016102f8565b808060200190518101906103f49190610efd565b60408051602081019091525f8152604080516001600160a01b03841660208201525f91606091610803910160408051601f19818403018152908290526109e391610d3e565b5f60405180830381855afa9150503d805f8114610a1b576040519150601f19603f3d011682016040523d82523d5f602084013e610a20565b606091505b50909250905081610a7f5760405162461bcd60e51b815260206004820152602360248201527f576974686472617761626c6520707265636f6d70696c652063616c6c206661696044820152621b195960ea1b60648201526084016102f8565b808060200190518101906103f49190611032565b60408051602081019091525f8152604080516001600160a01b0385811660208301528416918101919091525f9060609061080290820160408051601f1981840301815290829052610ae391610d3e565b5f60405180830381855afa9150503d805f8114610b1b576040519150601f19603f3d011682016040523d82523d5f602084013e610b20565b606091505b50909250905081610b7e5760405162461bcd60e51b815260206004820152602260248201527f5661756c7445717569747920707265636f6d70696c652063616c6c206661696c604482015261195960f21b60648201526084016102f8565b808060200190518101906106d39190611032565b803561ffff81168114610ba3575f80fd5b919050565b5f60208284031215610bb8575f80fd5b610bc182610b92565b9392505050565b6001600160a01b0381168114610bdc575f80fd5b50565b5f60208284031215610bef575f80fd5b8135610bc181610bc8565b5f8060408385031215610c0b575f80fd5b8235610c1681610bc8565b9150610c2460208401610b92565b90509250929050565b63ffffffff81168114610bdc575f80fd5b5f60208284031215610c4e575f80fd5b8135610bc181610c2d565b6001600160401b0381168114610bdc575f80fd5b5f8060408385031215610c7e575f80fd5b8235610c8981610bc8565b91506020830135610c9981610c59565b809150509250929050565b602080825282518282018190525f919060409081850190868401855b82811015610d0557815180516001600160a01b03168552868101516001600160401b039081168887015290860151168585015260609093019290850190600101610cc0565b5091979650505050505050565b5f8060408385031215610d23575f80fd5b8235610d2e81610bc8565b91506020830135610c9981610bc8565b5f82515f5b81811015610d5d5760208186018101518583015201610d43565b505f920191825250919050565b5f60208284031215610d7a575f80fd5b8151610bc181610c59565b634e487b7160e01b5f52604160045260245ffd5b604051606081016001600160401b0381118282101715610dbb57610dbb610d85565b60405290565b604051601f8201601f191681016001600160401b0381118282101715610de957610de9610d85565b604052919050565b5f60808284031215610e01575f80fd5b604051608081018181106001600160401b0382111715610e2357610e23610d85565b6040528251610e3181610c59565b81526020830151610e4181610c59565b60208201526040830151610e5481610c59565b60408201526060830151610e6781610c59565b60608201529392505050565b5f60608284031215610e83575f80fd5b610e8b610d99565b82518060070b8114610e9b575f80fd5b81526020830151610eab81610c2d565b60208201526040830151610ebe81610c59565b60408201529392505050565b5f60608284031215610eda575f80fd5b610ee2610d99565b8251610eed81610c59565b81526020830151610eab81610c59565b5f6020808385031215610f0e575f80fd5b82516001600160401b0380821115610f24575f80fd5b818501915085601f830112610f37575f80fd5b815181811115610f4957610f49610d85565b610f57848260051b01610dc1565b81815284810192506060918202840185019188831115610f75575f80fd5b938501935b82851015610fd95780858a031215610f91575f8081fd5b610f99610d99565b8551610fa481610bc8565b815285870151610fb381610c59565b81880152604086810151610fc681610c59565b9082015284529384019392850192610f7a565b50979650505050505050565b5f60208284031215610ff5575f80fd5b604051602081018181106001600160401b038211171561101757611017610d85565b8060405250809150825161102a81610c59565b905292915050565b5f60208284031215611042575f80fd5b610bc18383610fe556fea2646970667358221220af0949f55b60094366891a93cfa98b4efd9299c3dae084b58294e00320260dc064736f6c63430008150033","linkReferences":{}},"methodIdentifiers":{"delegations(address)":"bffe3486","delegatorSummary(address)":"37f980a5","l1BlockNumber()":"298c9005","markPx(uint16)":"3e37cfff","oraclePx(uint16)":"29ebb2ba","position(address,uint16)":"89cf7c89","spotBalance(address,uint64)":"a69610d1","spotPx(uint32)":"90702759","userVaultEquity(address,address)":"ee1b5af1","withdrawable(address)":"ce513b6f"},"id":257}