{"abi":[{"type":"function","name":"sendCDeposit","inputs":[{"name":"_wei","type":"uint64","internalType":"uint64"}],"outputs":[],"stateMutability":"nonpayable"},{"type":"function","name":"sendCWithdrawal","inputs":[{"name":"_wei","type":"uint64","internalType":"uint64"}],"outputs":[],"stateMutability":"nonpayable"},{"type":"function","name":"sendIocOrder","inputs":[{"name":"perp","type":"uint16","internalType":"uint16"},{"name":"isBuy","type":"bool","internalType":"bool"},{"name":"limitPx","type":"uint64","internalType":"uint64"},{"name":"sz","type":"uint64","internalType":"uint64"}],"outputs":[],"stateMutability":"nonpayable"},{"type":"function","name":"sendSpot","inputs":[{"name":"destination","type":"address","internalType":"address"},{"name":"token","type":"uint64","internalType":"uint64"},{"name":"_wei","type":"uint64","internalType":"uint64"}],"outputs":[],"stateMutability":"nonpayable"},{"type":"function","name":"sendTokenDelegate","inputs":[{"name":"validator","type":"address","internalType":"address"},{"name":"_wei","type":"uint64","internalType":"uint64"},{"name":"isUndelegate","type":"bool","internalType":"bool"}],"outputs":[],"stateMutability":"nonpayable"},{"type":"function","name":"sendUsdClassTransfer","inputs":[{"name":"ntl","type":"uint64","internalType":"uint64"},{"name":"toPerp","type":"bool","internalType":"bool"}],"outputs":[],"stateMutability":"nonpayable"},{"type":"function","name":"sendVaultTransfer","inputs":[{"name":"vault","type":"address","internalType":"address"},{"name":"isDeposit","type":"bool","internalType":"bool"},{"name":"usd","type":"uint64","internalType":"uint64"}],"outputs":[],"stateMutability":"nonpayable"},{"type":"event","name":"CDeposit","inputs":[{"name":"user","type":"address","indexed":true,"internalType":"address"},{"name":"_wei","type":"uint64","indexed":false,"internalType":"uint64"}],"anonymous":false},{"type":"event","name":"CWithdrawal","inputs":[{"name":"user","type":"address","indexed":true,"internalType":"address"},{"name":"_wei","type":"uint64","indexed":false,"internalType":"uint64"}],"anonymous":false},{"type":"event","name":"IocOrder","inputs":[{"name":"user","type":"address","indexed":true,"internalType":"address"},{"name":"perp","type":"uint16","indexed":false,"internalType":"uint16"},{"name":"isBuy","type":"bool","indexed":false,"internalType":"bool"},{"name":"limitPx","type":"uint64","indexed":false,"internalType":"uint64"},{"name":"sz","type":"uint64","indexed":false,"internalType":"uint64"}],"anonymous":false},{"type":"event","name":"SpotSend","inputs":[{"name":"user","type":"address","indexed":true,"internalType":"address"},{"name":"destination","type":"address","indexed":true,"internalType":"address"},{"name":"token","type":"uint64","indexed":false,"internalType":"uint64"},{"name":"_wei","type":"uint64","indexed":false,"internalType":"uint64"}],"anonymous":false},{"type":"event","name":"TokenDelegate","inputs":[{"name":"user","type":"address","indexed":true,"internalType":"address"},{"name":"validator","type":"address","indexed":true,"internalType":"address"},{"name":"_wei","type":"uint64","indexed":false,"internalType":"uint64"},{"name":"isUndelegate","type":"bool","indexed":false,"internalType":"bool"}],"anonymous":false},{"type":"event","name":"UsdClassTransfer","inputs":[{"name":"user","type":"address","indexed":true,"internalType":"address"},{"name":"ntl","type":"uint64","indexed":false,"internalType":"uint64"},{"name":"toPerp","type":"bool","indexed":false,"internalType":"bool"}],"anonymous":false},{"type":"event","name":"VaultTransfer","inputs":[{"name":"user","type":"address","indexed":true,"internalType":"address"},{"name":"vault","type":"address","indexed":true,"internalType":"address"},{"name":"isDeposit","type":"bool","indexed":false,"internalType":"bool"},{"name":"usd","type":"uint64","indexed":false,"internalType":"uint64"}],"anonymous":false}],"bytecode":{"object":"0x608060405234801561000f575f80fd5b506104e18061001d5f395ff3fe608060405234801561000f575f80fd5b506004361061007a575f3560e01c8063414fa43711610058578063414fa437146100b957806384918d1e146100cc5780639d6ed174146100df578063db30aa53146100f2575f80fd5b80630b0ac0ab1461007e578063258f0dcc146100935780632d9d5db6146100a6575b5f80fd5b61009161008c366004610352565b610105565b005b6100916100a13660046103a1565b61015c565b6100916100b43660046103ca565b6101aa565b6100916100c73660046103fb565b6101f4565b6100916100da3660046103fb565b610237565b6100916100ed36600461041b565b610273565b610091610100366004610474565b6102d2565b6040805167ffffffffffffffff8085168252831660208201526001600160a01b0385169133917f09f4a089fd53b0b2cd536bc6d609a82b696295ebdcb91c7e216ad11c5223f1d991015b60405180910390a3505050565b60408051831515815267ffffffffffffffff831660208201526001600160a01b0385169133917f1a729f4ef39a715194f8084eec644ce6f8f01909dc15e5bb0197bb2b7b831376910161014f565b6040805167ffffffffffffffff84168152821515602082015233917f7a1295c51ef7a78228f94d80495169fb233db371130a00f6fb718bbef7345467910160405180910390a25050565b60405167ffffffffffffffff8216815233907fd0f1a003ed3bfa57c76de3702b6697f7121de9e9a083464dccb5c1bcf9cdb0d9906020015b60405180910390a250565b60405167ffffffffffffffff8216815233907f41031f020c109ae2c55e59831bb87eb1903104fbc39b347fba3d1d344e6a20239060200161022c565b6040805161ffff86168152841515602082015267ffffffffffffffff8481168284015283166060820152905133917fda4f8dd9b1792e6857ae542eaaa779576018bf0c64f929c2e9791173e1a60d52919081900360800190a250505050565b6040805167ffffffffffffffff8416815282151560208201526001600160a01b0385169133917f475ec8b67801429f179721112a6d5cd50cc1e2dd3d69d829f81b266e79cd026e910161014f565b80356001600160a01b0381168114610336575f80fd5b919050565b803567ffffffffffffffff81168114610336575f80fd5b5f805f60608486031215610364575f80fd5b61036d84610320565b925061037b6020850161033b565b91506103896040850161033b565b90509250925092565b80358015158114610336575f80fd5b5f805f606084860312156103b3575f80fd5b6103bc84610320565b925061037b60208501610392565b5f80604083850312156103db575f80fd5b6103e48361033b565b91506103f260208401610392565b90509250929050565b5f6020828403121561040b575f80fd5b6104148261033b565b9392505050565b5f805f806080858703121561042e575f80fd5b843561ffff8116811461043f575f80fd5b935061044d60208601610392565b925061045b6040860161033b565b91506104696060860161033b565b905092959194509250565b5f805f60608486031215610486575f80fd5b61048f84610320565b925061049d6020850161033b565b91506103896040850161039256fea2646970667358221220c8a6757fe623818be06517b3c79a6d4ae4b02734618d59cd14b7596159bd18e264736f6c63430008150033","linkReferences":{}},"methodIdentifiers":{"sendCDeposit(uint64)":"414fa437","sendCWithdrawal(uint64)":"84918d1e","sendIocOrder(uint16,bool,uint64,uint64)":"9d6ed174","sendSpot(address,uint64,uint64)":"0b0ac0ab","sendTokenDelegate(address,uint64,bool)":"db30aa53","sendUsdClassTransfer(uint64,bool)":"2d9d5db6","sendVaultTransfer(address,bool,uint64)":"258f0dcc"},"id":258}