{"abi":[{"type":"constructor","inputs":[{"name":"_owner","type":"address","internalType":"address"},{"name":"_vault","type":"address","internalType":"address"},{"name":"_accountant","type":"address","internalType":"address"},{"name":"_weth","type":"address","internalType":"address"}],"stateMutability":"nonpayable"},{"type":"function","name":"accountant","inputs":[],"outputs":[{"name":"","type":"address","internalType":"contract AccountantWithRateProviders"}],"stateMutability":"view"},{"type":"function","name":"allowAll","inputs":[{"name":"user","type":"address","internalType":"address"}],"outputs":[],"stateMutability":"nonpayable"},{"type":"function","name":"allowFrom","inputs":[{"name":"user","type":"address","internalType":"address"}],"outputs":[],"stateMutability":"nonpayable"},{"type":"function","name":"allowOperator","inputs":[{"name":"user","type":"address","internalType":"address"}],"outputs":[],"stateMutability":"nonpayable"},{"type":"function","name":"allowTo","inputs":[{"name":"user","type":"address","internalType":"address"}],"outputs":[],"stateMutability":"nonpayable"},{"type":"function","name":"assetData","inputs":[{"name":"","type":"address","internalType":"contract ERC20"}],"outputs":[{"name":"allowDeposits","type":"bool","internalType":"bool"},{"name":"allowWithdraws","type":"bool","internalType":"bool"},{"name":"sharePremium","type":"uint16","internalType":"uint16"}],"stateMutability":"view"},{"type":"function","name":"authority","inputs":[],"outputs":[{"name":"","type":"address","internalType":"contract Authority"}],"stateMutability":"view"},{"type":"function","name":"beforeTransfer","inputs":[{"name":"from","type":"address","internalType":"address"},{"name":"to","type":"address","internalType":"address"},{"name":"operator","type":"address","internalType":"address"}],"outputs":[],"stateMutability":"view"},{"type":"function","name":"bulkDeposit","inputs":[{"name":"depositAsset","type":"address","internalType":"contract ERC20"},{"name":"depositAmount","type":"uint256","internalType":"uint256"},{"name":"minimumMint","type":"uint256","internalType":"uint256"},{"name":"to","type":"address","internalType":"address"}],"outputs":[{"name":"shares","type":"uint256","internalType":"uint256"}],"stateMutability":"nonpayable"},{"type":"function","name":"bulkWithdraw","inputs":[{"name":"withdrawAsset","type":"address","internalType":"contract ERC20"},{"name":"shareAmount","type":"uint256","internalType":"uint256"},{"name":"minimumAssets","type":"uint256","internalType":"uint256"},{"name":"to","type":"address","internalType":"address"}],"outputs":[{"name":"assetsOut","type":"uint256","internalType":"uint256"}],"stateMutability":"nonpayable"},{"type":"function","name":"denyAll","inputs":[{"name":"user","type":"address","internalType":"address"}],"outputs":[],"stateMutability":"nonpayable"},{"type":"function","name":"denyFrom","inputs":[{"name":"user","type":"address","internalType":"address"}],"outputs":[],"stateMutability":"nonpayable"},{"type":"function","name":"denyOperator","inputs":[{"name":"user","type":"address","internalType":"address"}],"outputs":[],"stateMutability":"nonpayable"},{"type":"function","name":"denyTo","inputs":[{"name":"user","type":"address","internalType":"address"}],"outputs":[],"stateMutability":"nonpayable"},{"type":"function","name":"deposit","inputs":[{"name":"depositAsset","type":"address","internalType":"contract ERC20"},{"name":"depositAmount","type":"uint256","internalType":"uint256"},{"name":"minimumMint","type":"uint256","internalType":"uint256"}],"outputs":[{"name":"shares","type":"uint256","internalType":"uint256"}],"stateMutability":"payable"},{"type":"function","name":"depositNonce","inputs":[],"outputs":[{"name":"","type":"uint96","internalType":"uint96"}],"stateMutability":"view"},{"type":"function","name":"depositWithPermit","inputs":[{"name":"depositAsset","type":"address","internalType":"contract ERC20"},{"name":"depositAmount","type":"uint256","internalType":"uint256"},{"name":"minimumMint","type":"uint256","internalType":"uint256"},{"name":"deadline","type":"uint256","internalType":"uint256"},{"name":"v","type":"uint8","internalType":"uint8"},{"name":"r","type":"bytes32","internalType":"bytes32"},{"name":"s","type":"bytes32","internalType":"bytes32"}],"outputs":[{"name":"shares","type":"uint256","internalType":"uint256"}],"stateMutability":"nonpayable"},{"type":"function","name":"fromDenyList","inputs":[{"name":"","type":"address","internalType":"address"}],"outputs":[{"name":"","type":"bool","internalType":"bool"}],"stateMutability":"view"},{"type":"function","name":"isPaused","inputs":[],"outputs":[{"name":"","type":"bool","internalType":"bool"}],"stateMutability":"view"},{"type":"function","name":"nativeWrapper","inputs":[],"outputs":[{"name":"","type":"address","internalType":"contract WETH"}],"stateMutability":"view"},{"type":"function","name":"operatorDenyList","inputs":[{"name":"","type":"address","internalType":"address"}],"outputs":[{"name":"","type":"bool","internalType":"bool"}],"stateMutability":"view"},{"type":"function","name":"owner","inputs":[],"outputs":[{"name":"","type":"address","internalType":"address"}],"stateMutability":"view"},{"type":"function","name":"pause","inputs":[],"outputs":[],"stateMutability":"nonpayable"},{"type":"function","name":"publicDepositHistory","inputs":[{"name":"","type":"uint256","internalType":"uint256"}],"outputs":[{"name":"","type":"bytes32","internalType":"bytes32"}],"stateMutability":"view"},{"type":"function","name":"refundDeposit","inputs":[{"name":"nonce","type":"uint256","internalType":"uint256"},{"name":"receiver","type":"address","internalType":"address"},{"name":"depositAsset","type":"address","internalType":"address"},{"name":"depositAmount","type":"uint256","internalType":"uint256"},{"name":"shareAmount","type":"uint256","internalType":"uint256"},{"name":"depositTimestamp","type":"uint256","internalType":"uint256"},{"name":"shareLockUpPeriodAtTimeOfDeposit","type":"uint256","internalType":"uint256"}],"outputs":[],"stateMutability":"nonpayable"},{"type":"function","name":"setAuthority","inputs":[{"name":"newAuthority","type":"address","internalType":"contract Authority"}],"outputs":[],"stateMutability":"nonpayable"},{"type":"function","name":"setShareLockPeriod","inputs":[{"name":"_shareLockPeriod","type":"uint64","internalType":"uint64"}],"outputs":[],"stateMutability":"nonpayable"},{"type":"function","name":"shareLockPeriod","inputs":[],"outputs":[{"name":"","type":"uint64","internalType":"uint64"}],"stateMutability":"view"},{"type":"function","name":"shareUnlockTime","inputs":[{"name":"","type":"address","internalType":"address"}],"outputs":[{"name":"","type":"uint256","internalType":"uint256"}],"stateMutability":"view"},{"type":"function","name":"toDenyList","inputs":[{"name":"","type":"address","internalType":"address"}],"outputs":[{"name":"","type":"bool","internalType":"bool"}],"stateMutability":"view"},{"type":"function","name":"transferOwnership","inputs":[{"name":"newOwner","type":"address","internalType":"address"}],"outputs":[],"stateMutability":"nonpayable"},{"type":"function","name":"unpause","inputs":[],"outputs":[],"stateMutability":"nonpayable"},{"type":"function","name":"updateAssetData","inputs":[{"name":"asset","type":"address","internalType":"contract ERC20"},{"name":"allowDeposits","type":"bool","internalType":"bool"},{"name":"allowWithdraws","type":"bool","internalType":"bool"},{"name":"sharePremium","type":"uint16","internalType":"uint16"}],"outputs":[],"stateMutability":"nonpayable"},{"type":"function","name":"vault","inputs":[],"outputs":[{"name":"","type":"address","internalType":"contract BoringVault"}],"stateMutability":"view"},{"type":"event","name":"AllowFrom","inputs":[{"name":"user","type":"address","indexed":true,"internalType":"address"}],"anonymous":false},{"type":"event","name":"AllowOperator","inputs":[{"name":"user","type":"address","indexed":true,"internalType":"address"}],"anonymous":false},{"type":"event","name":"AllowTo","inputs":[{"name":"user","type":"address","indexed":true,"internalType":"address"}],"anonymous":false},{"type":"event","name":"AssetDataUpdated","inputs":[{"name":"asset","type":"address","indexed":true,"internalType":"address"},{"name":"allowDeposits","type":"bool","indexed":false,"internalType":"bool"},{"name":"allowWithdraws","type":"bool","indexed":false,"internalType":"bool"},{"name":"sharePremium","type":"uint16","indexed":false,"internalType":"uint16"}],"anonymous":false},{"type":"event","name":"AuthorityUpdated","inputs":[{"name":"user","type":"address","indexed":true,"internalType":"address"},{"name":"newAuthority","type":"address","indexed":true,"internalType":"contract Authority"}],"anonymous":false},{"type":"event","name":"BulkDeposit","inputs":[{"name":"asset","type":"address","indexed":true,"internalType":"address"},{"name":"depositAmount","type":"uint256","indexed":false,"internalType":"uint256"}],"anonymous":false},{"type":"event","name":"BulkWithdraw","inputs":[{"name":"asset","type":"address","indexed":true,"internalType":"address"},{"name":"shareAmount","type":"uint256","indexed":false,"internalType":"uint256"}],"anonymous":false},{"type":"event","name":"DenyFrom","inputs":[{"name":"user","type":"address","indexed":true,"internalType":"address"}],"anonymous":false},{"type":"event","name":"DenyOperator","inputs":[{"name":"user","type":"address","indexed":true,"internalType":"address"}],"anonymous":false},{"type":"event","name":"DenyTo","inputs":[{"name":"user","type":"address","indexed":true,"internalType":"address"}],"anonymous":false},{"type":"event","name":"Deposit","inputs":[{"name":"nonce","type":"uint256","indexed":true,"internalType":"uint256"},{"name":"receiver","type":"address","indexed":true,"internalType":"address"},{"name":"depositAsset","type":"address","indexed":true,"internalType":"address"},{"name":"depositAmount","type":"uint256","indexed":false,"internalType":"uint256"},{"name":"shareAmount","type":"uint256","indexed":false,"internalType":"uint256"},{"name":"depositTimestamp","type":"uint256","indexed":false,"internalType":"uint256"},{"name":"shareLockPeriodAtTimeOfDeposit","type":"uint256","indexed":false,"internalType":"uint256"}],"anonymous":false},{"type":"event","name":"DepositRefunded","inputs":[{"name":"nonce","type":"uint256","indexed":true,"internalType":"uint256"},{"name":"depositHash","type":"bytes32","indexed":false,"internalType":"bytes32"},{"name":"user","type":"address","indexed":true,"internalType":"address"}],"anonymous":false},{"type":"event","name":"OwnershipTransferred","inputs":[{"name":"user","type":"address","indexed":true,"internalType":"address"},{"name":"newOwner","type":"address","indexed":true,"internalType":"address"}],"anonymous":false},{"type":"event","name":"Paused","inputs":[],"anonymous":false},{"type":"event","name":"Unpaused","inputs":[],"anonymous":false},{"type":"error","name":"TellerWithMultiAssetSupport__AssetNotSupported","inputs":[]},{"type":"error","name":"TellerWithMultiAssetSupport__BadDepositHash","inputs":[]},{"type":"error","name":"TellerWithMultiAssetSupport__CannotDepositNative","inputs":[]},{"type":"error","name":"TellerWithMultiAssetSupport__DualDeposit","inputs":[]},{"type":"error","name":"TellerWithMultiAssetSupport__MinimumAssetsNotMet","inputs":[]},{"type":"error","name":"TellerWithMultiAssetSupport__MinimumMintNotMet","inputs":[]},{"type":"error","name":"TellerWithMultiAssetSupport__Paused","inputs":[]},{"type":"error","name":"TellerWithMultiAssetSupport__PermitFailedAndAllowanceTooLow","inputs":[]},{"type":"error","name":"TellerWithMultiAssetSupport__ShareLockPeriodTooLong","inputs":[]},{"type":"error","name":"TellerWithMultiAssetSupport__SharePremiumTooLarge","inputs":[]},{"type":"error","name":"TellerWithMultiAssetSupport__SharesAreLocked","inputs":[]},{"type":"error","name":"TellerWithMultiAssetSupport__SharesAreUnLocked","inputs":[]},{"type":"error","name":"TellerWithMultiAssetSupport__TransferDenied","inputs":[{"name":"from","type":"address","internalType":"address"},{"name":"to","type":"address","internalType":"address"},{"name":"operator","type":"address","internalType":"address"}]},{"type":"error","name":"TellerWithMultiAssetSupport__ZeroAssets","inputs":[]},{"type":"error","name":"TellerWithMultiAssetSupport__ZeroShares","inputs":[]}],"bytecode":{"object":"0x610100604052600160025534801562000016575f80fd5b506040516200271c3803806200271c83398101604081905262000039916200017b565b5f80546001600160a01b0386166001600160a01b031991821681178355600180549092169091556040518692919033907f8be0079c531659141344cd1fd0a4f28419497f9722a3daafe3b4186f6b6457e0908490a36040516001600160a01b0382169033907fa3396fd7f6e0a21b50e5089d2da70d5ac0a3bbbd1f617a93f134b76389980198905f90a350506001600160a01b03831660808190526040805163313ce56760e01b8152905163313ce567916004808201926020929091908290030181865afa1580156200010e573d5f803e3d5ffd5b505050506040513d601f19601f82011682018060405250810190620001349190620001d5565b6200014190600a6200030d565b60c0526001600160a01b0391821660a0521660e052506200031d9050565b80516001600160a01b038116811462000176575f80fd5b919050565b5f805f80608085870312156200018f575f80fd5b6200019a856200015f565b9350620001aa602086016200015f565b9250620001ba604086016200015f565b9150620001ca606086016200015f565b905092959194509250565b5f60208284031215620001e6575f80fd5b815160ff81168114620001f7575f80fd5b9392505050565b634e487b7160e01b5f52601160045260245ffd5b600181815b808511156200025257815f1904821115620002365762000236620001fe565b808516156200024457918102915b93841c939080029062000217565b509250929050565b5f826200026a5750600162000307565b816200027857505f62000307565b81600181146200029157600281146200029c57620002bc565b600191505062000307565b60ff841115620002b057620002b0620001fe565b50506001821b62000307565b5060208310610133831016604e8410600b8410161715620002e1575081810a62000307565b620002ed838362000212565b805f1904821115620003035762000303620001fe565b0290505b92915050565b5f620001f760ff8416836200025a565b60805160a05160c05160e051612370620003ac5f395f8181610249015281816107e301528181610860015281816108ae01526111d101525f8181610f3d0152611b5f01525f81816104a001528181610ece0152611b8101525f818161070c0152818161088401528181610f9b0152818161120b01528181611c6601528181611e260152611ec601526123705ff3fe6080604052600436106101f1575f3560e01c80635f45bac811610108578063a924bf611161009d578063c29d2f101161006d578063c29d2f1014610658578063de35f5cb14610677578063f07f287d146106ae578063f2fde38b146106dc578063fbfa77cf146106fb575f80fd5b8063a924bf61146105db578063abd626b0146105fa578063b187bd2614610619578063bf7e214f14610639575f80fd5b80638dfd8ba1116100d85780638dfd8ba1146105325780639a94d3d0146105515780639d5744201461057c5780639fdb11b61461059b575f80fd5b80635f45bac8146104c25780637a9e5e4b146104e15780638456cb59146105005780638da5cb5b14610514575f80fd5b806326a64b40116101895780633e64ce99116101595780633e64ce99146103d85780633f4ba83a146103f757806341fee44a1461040b57806346b563f4146104705780634fb3ccc51461048f575f80fd5b806326a64b401461034d5780632c524c421461037b5780633b5754071461039a5780633d935d9e146103b9575f80fd5b80631899ea81116101c45780631899ea81146102c557806318aed921146102f05780631b62636c1461030f5780631ba9a4581461032e575f80fd5b806304ded84a146101f55780630b48a8b8146102385780630efe6a8b1461028357806312056e2d146102a4575b5f80fd5b348015610200575f80fd5b5061022361020f366004611f93565b60086020525f908152604090205460ff1681565b60405190151581526020015b60405180910390f35b348015610243575f80fd5b5061026b7f000000000000000000000000000000000000000000000000000000000000000081565b6040516001600160a01b03909116815260200161022f565b610296610291366004611fb5565b61072e565b60405190815260200161022f565b3480156102af575f80fd5b506102c36102be366004611fe7565b610942565b005b3480156102d0575f80fd5b506102966102df366004611f93565b60066020525f908152604090205481565b3480156102fb575f80fd5b506102c361030a366004611f93565b6109cf565b34801561031a575f80fd5b506102c3610329366004611f93565b610ad7565b348015610339575f80fd5b506102c3610348366004611f93565b610b53565b348015610358575f80fd5b50610223610367366004611f93565b60076020525f908152604090205460ff1681565b348015610386575f80fd5b506102c3610395366004611f93565b610bcc565b3480156103a5575f80fd5b506102c36103b4366004611f93565b610c48565b3480156103c4575f80fd5b506102966103d336600461200e565b610cc4565b3480156103e3575f80fd5b506102966103f2366004612076565b610dc4565b348015610402575f80fd5b506102c3611051565b348015610416575f80fd5b5061044f610425366004611f93565b60036020525f908152604090205460ff8082169161010081049091169062010000900461ffff1683565b604080519315158452911515602084015261ffff169082015260600161022f565b34801561047b575f80fd5b506102c361048a3660046120bd565b6110b9565b34801561049a575f80fd5b5061026b7f000000000000000000000000000000000000000000000000000000000000000081565b3480156104cd575f80fd5b506102c36104dc366004611f93565b6112c3565b3480156104ec575f80fd5b506102c36104fb366004611f93565b61133c565b34801561050b575f80fd5b506102c3611420565b34801561051f575f80fd5b505f5461026b906001600160a01b031681565b34801561053d575f80fd5b506102c361054c36600461212a565b61148e565b34801561055c575f80fd5b5061029661056b36600461217e565b60056020525f908152604090205481565b348015610587575f80fd5b50610296610596366004612076565b6115a7565b3480156105a6575f80fd5b506004546105c290600160601b900467ffffffffffffffff1681565b60405167ffffffffffffffff909116815260200161022f565b3480156105e6575f80fd5b506102c36105f5366004611f93565b61166c565b348015610605575f80fd5b506102c3610614366004612195565b6116e5565b348015610624575f80fd5b5060045461022390600160a01b900460ff1681565b348015610644575f80fd5b5060015461026b906001600160a01b031681565b348015610663575f80fd5b506102c3610672366004611f93565b6117ba565b348015610682575f80fd5b50600454610696906001600160601b031681565b6040516001600160601b03909116815260200161022f565b3480156106b9575f80fd5b506102236106c8366004611f93565b60096020525f908152604090205460ff1681565b3480156106e7575f80fd5b506102c36106f6366004611f93565b6118bb565b348015610706575f80fd5b5061026b7f000000000000000000000000000000000000000000000000000000000000000081565b5f610744335f356001600160e01b031916611936565b6107695760405162461bcd60e51b8152600401610760906121dd565b60405180910390fd5b60025460011461078b5760405162461bcd60e51b815260040161076090612203565b600280555f610799856119de565b90505f73eeeeeeeeeeeeeeeeeeeeeeeeeeeeeeeeeeeeeeed196001600160a01b038716016108d557345f036107e15760405163259be69560e11b815260040160405180910390fd5b7f00000000000000000000000000000000000000000000000000000000000000006001600160a01b031663d0e30db0346040518263ffffffff1660e01b81526004015f604051808303818588803b15801561083a575f80fd5b505af115801561084c573d5f803e3d5ffd5b503498506108ab9350506001600160a01b037f00000000000000000000000000000000000000000000000000000000000000001691507f0000000000000000000000000000000000000000000000000000000000000000905087611a99565b507f00000000000000000000000000000000000000000000000000000000000000009450306108f7565b34156108f457604051631cf02cf960e21b815260040160405180910390fd5b50335b610905868686843387611b1b565b9250610934338787866004600c9054906101000a900467ffffffffffffffff1667ffffffffffffffff16611cda565b505060016002559392505050565b610957335f356001600160e01b031916611936565b6109735760405162461bcd60e51b8152600401610760906121dd565b6203f4808167ffffffffffffffff1611156109a157604051631fac010160e21b815260040160405180910390fd5b6004805467ffffffffffffffff909216600160601b0267ffffffffffffffff60601b19909216919091179055565b6109e4335f356001600160e01b031916611936565b610a005760405162461bcd60e51b8152600401610760906121dd565b6001600160a01b0381165f8181526007602090815260408083208054600160ff1991821681179092556008845282852080548216831790556009909352818420805490931617909155517fd658022b1a3aaf6ad3b3c615253712807f21a8f7bc3e4996e10618175d4afb2b9190a26040516001600160a01b038216907f79fc685a7dbabb75a67df5e69a90602cef1f19bc465b060eab1ac56685e04a13905f90a26040516001600160a01b038216907f3afb02134e37f7205acf470adc2fc4ebb70614b1599a602d069790915380e2aa905f90a250565b610aec335f356001600160e01b031916611936565b610b085760405162461bcd60e51b8152600401610760906121dd565b6001600160a01b0381165f81815260096020526040808220805460ff19166001179055517f3afb02134e37f7205acf470adc2fc4ebb70614b1599a602d069790915380e2aa9190a250565b610b68335f356001600160e01b031916611936565b610b845760405162461bcd60e51b8152600401610760906121dd565b6001600160a01b0381165f81815260096020526040808220805460ff19169055517f77cb944c14da76928795279d1519ce9150085a06e0a53c61d5a86fc4e0fd57c69190a250565b610be1335f356001600160e01b031916611936565b610bfd5760405162461bcd60e51b8152600401610760906121dd565b6001600160a01b0381165f81815260076020526040808220805460ff19166001179055517fd658022b1a3aaf6ad3b3c615253712807f21a8f7bc3e4996e10618175d4afb2b9190a250565b610c5d335f356001600160e01b031916611936565b610c795760405162461bcd60e51b8152600401610760906121dd565b6001600160a01b0381165f81815260086020526040808220805460ff19166001179055517f79fc685a7dbabb75a67df5e69a90602cef1f19bc465b060eab1ac56685e04a139190a250565b5f610cda335f356001600160e01b031916611936565b610cf65760405162461bcd60e51b8152600401610760906121dd565b600254600114610d185760405162461bcd60e51b815260040161076090612203565b600280558773eeeeeeeeeeeeeeeeeeeeeeeeeeeeeeeeeeeeeeed196001600160a01b03821601610d5b576040516316df5df960e31b815260040160405180910390fd5b5f610d658a6119de565b9050610d758a8a89898989611e09565b610d838a8a8a333386611b1b565b9250610db2338b8b866004600c9054906101000a900467ffffffffffffffff1667ffffffffffffffff16611cda565b50506001600255979650505050505050565b5f610dda335f356001600160e01b031916611936565b610df65760405162461bcd60e51b8152600401610760906121dd565b600454600160a01b900460ff1615610e215760405163e0f9e71d60e01b815260040160405180910390fd5b6001600160a01b0385165f908152600360209081526040918290208251606081018452905460ff80821615158352610100820416151592820183905262010000900461ffff1692810192909252610e8b5760405163645fd19f60e11b815260040160405180910390fd5b845f03610eab57604051630ea3153160e21b815260040160405180910390fd5b604051634104b9ed60e11b81526001600160a01b038781166004830152610f61917f00000000000000000000000000000000000000000000000000000000000000009091169063820973da90602401602060405180830381865afa158015610f15573d5f803e3d5ffd5b505050506040513d601f19601f82011682018060405250810190610f399190612227565b86907f0000000000000000000000000000000000000000000000000000000000000000611f61565b915083821015610f84576040516302620f6160e61b815260040160405180910390fd5b6040516318457e6160e01b81526001600160a01b037f000000000000000000000000000000000000000000000000000000000000000016906318457e6190610fd89086908a90879033908c9060040161223e565b5f604051808303815f87803b158015610fef575f80fd5b505af1158015611001573d5f803e3d5ffd5b50505050856001600160a01b03167fdcc60b41ff1c604459e6aa4a7299817416b19fc586a392f111646e26597c4af98660405161104091815260200190565b60405180910390a250949350505050565b611066335f356001600160e01b031916611936565b6110825760405162461bcd60e51b8152600401610760906121dd565b6004805460ff60a01b191690556040517fa45f47fdea8a1efdd9029a5691c7f759c32b7c698632b563573e155625d16933905f90a1565b6110ce335f356001600160e01b031916611936565b6110ea5760405162461bcd60e51b8152600401610760906121dd565b806110f58342612285565b1061111357604051634c1eef1760e11b815260040160405180910390fd5b604080516001600160a01b038089166020830152871691810191909152606081018590526080810184905260a0810183905260c081018290525f9060e00160408051601f1981840301815291815281516020928301205f8b8152600590935291205490915081146111975760405163fa174ecb60e01b815260040160405180910390fd5b5f888152600560205260408120556001600160a01b03861673eeeeeeeeeeeeeeeeeeeeeeeeeeeeeeeeeeeeeeee146111cf57856111f1565b7f00000000000000000000000000000000000000000000000000000000000000005b6040516318457e6160e01b81529096506001600160a01b037f000000000000000000000000000000000000000000000000000000000000000016906318457e6190611248908a908a908a9083908b9060040161223e565b5f604051808303815f87803b15801561125f575f80fd5b505af1158015611271573d5f803e3d5ffd5b50505050866001600160a01b0316887faf98ea774275cadfa3e477a7b52cba03e01197445a76bd5d0d561608708c3624836040516112b191815260200190565b60405180910390a35050505050505050565b6112d8335f356001600160e01b031916611936565b6112f45760405162461bcd60e51b8152600401610760906121dd565b6001600160a01b0381165f81815260086020526040808220805460ff19169055517f039bcf51833310242b8b7c6aa0fbabf1bf2b5e5270807ee020f1920ef200666b9190a250565b5f546001600160a01b03163314806113cd575060015460405163b700961360e01b81526001600160a01b039091169063b70096139061138e90339030906001600160e01b03195f351690600401612298565b602060405180830381865afa1580156113a9573d5f803e3d5ffd5b505050506040513d601f19601f820116820180604052508101906113cd91906122c5565b6113d5575f80fd5b600180546001600160a01b0319166001600160a01b03831690811790915560405133907fa3396fd7f6e0a21b50e5089d2da70d5ac0a3bbbd1f617a93f134b76389980198905f90a350565b611435335f356001600160e01b031916611936565b6114515760405162461bcd60e51b8152600401610760906121dd565b6004805460ff60a01b1916600160a01b1790556040517f9e87fac88ff661f02d44f95383c817fece4bce600a3dab7a54406878b965e752905f90a1565b6114a3335f356001600160e01b031916611936565b6114bf5760405162461bcd60e51b8152600401610760906121dd565b6103e861ffff821611156114e657604051636c5cde8760e01b815260040160405180910390fd5b6040805160608082018352851515808352851515602080850182815261ffff8881168789018181526001600160a01b038e165f818152600387528b902099518a549551925161ffff1990961690151561ff00191617610100921515929092029190911763ffff0000191662010000949093169390930291909117909655865193845290830191909152938101929092527fe08301321781ac43935a2099b2c3fd42de0a0ee87a519cac00e8c9cecd26ff12910160405180910390a250505050565b5f6115bd335f356001600160e01b031916611936565b6115d95760405162461bcd60e51b8152600401610760906121dd565b6002546001146115fb5760405162461bcd60e51b815260040161076090612203565b600280555f611609866119de565b9050611619868686338786611b1b565b9150856001600160a01b03167f6f9b974223f85a1ae805c33b8b519039e2435481d949db1110de151a94d587af8660405161165691815260200190565b60405180910390a2506001600255949350505050565b611681335f356001600160e01b031916611936565b61169d5760405162461bcd60e51b8152600401610760906121dd565b6001600160a01b0381165f81815260076020526040808220805460ff19169055517fae893dda71e2eee548f8291f458cceae4bd22b56a79906928591e4420444c0e99190a250565b6001600160a01b0383165f9081526007602052604090205460ff168061172257506001600160a01b0382165f9081526008602052604090205460ff165b8061174457506001600160a01b0381165f9081526009602052604090205460ff165b1561177d57604051632821264f60e01b81526001600160a01b038085166004830152808416602483015282166044820152606401610760565b6001600160a01b0383165f908152600660205260409020544210156117b55760405163f64059db60e01b815260040160405180910390fd5b505050565b6117cf335f356001600160e01b031916611936565b6117eb5760405162461bcd60e51b8152600401610760906121dd565b6001600160a01b0381165f818152600760209081526040808320805460ff199081169091556008835281842080548216905560099092528083208054909216909155517fae893dda71e2eee548f8291f458cceae4bd22b56a79906928591e4420444c0e99190a26040516001600160a01b038216907f039bcf51833310242b8b7c6aa0fbabf1bf2b5e5270807ee020f1920ef200666b905f90a26040516001600160a01b038216907f77cb944c14da76928795279d1519ce9150085a06e0a53c61d5a86fc4e0fd57c6905f90a250565b6118d0335f356001600160e01b031916611936565b6118ec5760405162461bcd60e51b8152600401610760906121dd565b5f80546001600160a01b0319166001600160a01b0383169081178255604051909133917f8be0079c531659141344cd1fd0a4f28419497f9722a3daafe3b4186f6b6457e09190a350565b6001545f906001600160a01b031680158015906119bd575060405163b700961360e01b81526001600160a01b0382169063b70096139061197e90879030908890600401612298565b602060405180830381865afa158015611999573d5f803e3d5ffd5b505050506040513d601f19601f820116820180604052508101906119bd91906122c5565b806119d457505f546001600160a01b038581169116145b9150505b92915050565b604080516060810182525f8082526020820181905291810191909152600454600160a01b900460ff1615611a255760405163e0f9e71d60e01b815260040160405180910390fd5b506001600160a01b0381165f908152600360209081526040918290208251606081018452905460ff8082161515808452610100830490911615159383019390935262010000900461ffff1692810192909252611a945760405163645fd19f60e11b815260040160405180910390fd5b919050565b5f60405163095ea7b360e01b81526001600160a01b038416600482015282602482015260205f6044835f895af13d15601f3d1160015f511416171691505080611b155760405162461bcd60e51b815260206004820152600e60248201526d1054141493d59157d1905253115160921b6044820152606401610760565b50505050565b5f855f03611b3c5760405163259be69560e11b815260040160405180910390fd5b604051634104b9ed60e11b81526001600160a01b038881166004830152611bf2917f0000000000000000000000000000000000000000000000000000000000000000917f0000000000000000000000000000000000000000000000000000000000000000169063820973da90602401602060405180830381865afa158015611bc6573d5f803e3d5ffd5b505050506040513d601f19601f82011682018060405250810190611bea9190612227565b889190611f61565b90505f826040015161ffff1611611c095780611c2c565b611c2c8260400151612710611c1e91906122e0565b829061ffff16612710611f61565b905084811015611c4f5760405163097b2ad560e31b815260040160405180910390fd5b604051631ceb5d1960e11b81526001600160a01b037f000000000000000000000000000000000000000000000000000000000000000016906339d6ba3290611ca39087908b908b908990889060040161223e565b5f604051808303815f87803b158015611cba575f80fd5b505af1158015611ccc573d5f803e3d5ffd5b505050509695505050505050565b600480545f91908290611cf5906001600160601b0316612302565b82546001600160601b039182166101009390930a838102920219161790915590508115611d9957611d268242612327565b6001600160a01b038781165f81815260066020908152604091829020949094558051938401919091529087169082015260608101859052608081018490524260a082015260c0810183905260e00160408051601f1981840301815291815281516020928301205f84815260059093529120555b846001600160a01b0316866001600160a01b0316827fe96d7872363f475d18b2f5390caaa5eaa96b2d38e42c62afe4ac08ebd2b13c3a87874288604051611df9949392919093845260208401929092526040830152606082015260800190565b60405180910390a4505050505050565b60405163d505accf60e01b81523360048201526001600160a01b037f000000000000000000000000000000000000000000000000000000000000000081166024830152604482018790526064820186905260ff8516608483015260a4820184905260c4820183905287169063d505accf9060e4015f604051808303815f87803b158015611e94575f80fd5b505af1925050508015611ea5575060015b611f5957604051636eb1769f60e11b81523360048201526001600160a01b037f00000000000000000000000000000000000000000000000000000000000000008116602483015286919088169063dd62ed3e90604401602060405180830381865afa158015611f16573d5f803e3d5ffd5b505050506040513d601f19601f82011682018060405250810190611f3a9190612227565b1015611f59576040516301b8851f60e41b815260040160405180910390fd5b505050505050565b5f825f190484118302158202611f75575f80fd5b5091020490565b6001600160a01b0381168114611f90575f80fd5b50565b5f60208284031215611fa3575f80fd5b8135611fae81611f7c565b9392505050565b5f805f60608486031215611fc7575f80fd5b8335611fd281611f7c565b95602085013595506040909401359392505050565b5f60208284031215611ff7575f80fd5b813567ffffffffffffffff81168114611fae575f80fd5b5f805f805f805f60e0888a031215612024575f80fd5b873561202f81611f7c565b9650602088013595506040880135945060608801359350608088013560ff81168114612059575f80fd5b9699959850939692959460a0840135945060c09093013592915050565b5f805f8060808587031215612089575f80fd5b843561209481611f7c565b9350602085013592506040850135915060608501356120b281611f7c565b939692955090935050565b5f805f805f805f60e0888a0312156120d3575f80fd5b8735965060208801356120e581611f7c565b955060408801356120f581611f7c565b969995985095966060810135965060808101359560a0820135955060c0909101359350915050565b8015158114611f90575f80fd5b5f805f806080858703121561213d575f80fd5b843561214881611f7c565b935060208501356121588161211d565b925060408501356121688161211d565b9150606085013561ffff811681146120b2575f80fd5b5f6020828403121561218e575f80fd5b5035919050565b5f805f606084860312156121a7575f80fd5b83356121b281611f7c565b925060208401356121c281611f7c565b915060408401356121d281611f7c565b809150509250925092565b6020808252600c908201526b15539055551213d49256915160a21b604082015260600190565b6020808252600a90820152695245454e5452414e435960b01b604082015260600190565b5f60208284031215612237575f80fd5b5051919050565b6001600160a01b039586168152938516602085015260408401929092529092166060820152608081019190915260a00190565b634e487b7160e01b5f52601160045260245ffd5b818103818111156119d8576119d8612271565b6001600160a01b0393841681529190921660208201526001600160e01b0319909116604082015260600190565b5f602082840312156122d5575f80fd5b8151611fae8161211d565b61ffff8281168282160390808211156122fb576122fb612271565b5092915050565b5f6001600160601b0380831681810361231d5761231d612271565b6001019392505050565b808201808211156119d8576119d861227156fea2646970667358221220292837e07d689ef163f4ec024956766e883c33f21e026ae882c1d90666063fa064736f6c63430008150033","linkReferences":{}},"methodIdentifiers":{"accountant()":"4fb3ccc5","allowAll(address)":"c29d2f10","allowFrom(address)":"a924bf61","allowOperator(address)":"1ba9a458","allowTo(address)":"5f45bac8","assetData(address)":"41fee44a","authority()":"bf7e214f","beforeTransfer(address,address,address)":"abd626b0","bulkDeposit(address,uint256,uint256,address)":"9d574420","bulkWithdraw(address,uint256,uint256,address)":"3e64ce99","denyAll(address)":"18aed921","denyFrom(address)":"2c524c42","denyOperator(address)":"1b62636c","denyTo(address)":"3b575407","deposit(address,uint256,uint256)":"0efe6a8b","depositNonce()":"de35f5cb","depositWithPermit(address,uint256,uint256,uint256,uint8,bytes32,bytes32)":"3d935d9e","fromDenyList(address)":"26a64b40","isPaused()":"b187bd26","nativeWrapper()":"0b48a8b8","operatorDenyList(address)":"f07f287d","owner()":"8da5cb5b","pause()":"8456cb59","publicDepositHistory(uint256)":"9a94d3d0","refundDeposit(uint256,address,address,uint256,uint256,uint256,uint256)":"46b563f4","setAuthority(address)":"7a9e5e4b","setShareLockPeriod(uint64)":"12056e2d","shareLockPeriod()":"9fdb11b6","shareUnlockTime(address)":"1899ea81","toDenyList(address)":"04ded84a","transferOwnership(address)":"f2fde38b","unpause()":"3f4ba83a","updateAssetData(address,bool,bool,uint16)":"8dfd8ba1","vault()":"fbfa77cf"},"id":236}